:020000040800F2
:1000000000000220A90E00084D1B0008551B000827
:100010005D1B0008651B00086D1B00080000000048
:100020000000000000000000000000007510000843
:10003000751B000800000000BD03000869030008EC
:10004000751000087510000875100008751000087C
:10005000751000087510000875100008751000086C
:10006000751000087510000875100008751000085C
:10007000751000087510000875100008751000084C
:10008000751000087510000875100008751000083C
:10009000751000087510000875100008751000082C
:1000A000751000087510000875100008751000081C
:1000B0007510000875100008851B000875100008F1
:1000C00075100008751000087510000875100008FC
:1000D00075100008751000087510000875100008EC
:1000E0007510000875100008000000007510000869
:1000F00075100008751000087510000875100008CC
:1001000075100008751000087510000875100008BB
:1001100075100008751000087510000875100008AB
:10012000751000087510000875100008751000089B
:10013000751000087510000875100008751000088B
:1001400000000000000000000000000000000000AF
:10015000751000087510000875100008751000086B
:10016000751000087510000875100008751000085B
:1001700075100008991B00087510000800000000A9
:10018000751000087510000875100008751000083B
:10019000751000087510000875100008751000082B
:1001A00075100008751000087510000800000000A8
:1001B000AD1B0008751000087510000875100008C8
:1001C0007510000875100008000000000000000015
:1001D0000000000000000000751000080000000092
:1001E000000000000000000000000000000000000F
:1001F00000000000000000007510000875100008E5
:100200007510000875100008000000007510000847
:1002100075100008751000087510000875100008AA
:1002200075100008000000007510000800000000B4
:10023000C11B0008751000080000000075100008C0
:10024000751000087510000875100008751000087A
:10025000751000087510000875100008751000086A
:10026000751000087510000875100008751000085A
:1002700075100008751000087510000800000000D7
:10028000751000087510000875100008751000083A
:100290000000000075100008751000080000000044
:1002A00000000000751000087510000875100008A7
:1002B000751000087510000875100008751000080A
:0C02C0007510000875100008751000088B
:1002D00010B5054C237833B9044B13B10448AFF380
:1002E00000800123237010BDA00600200000000044
:1002F00098A6010808B5034B1BB103490348AFF3A7
:10030000008008BD00000000A406002098A6010897
:1003100072B64FF0E0201949C0F8081D1848174977
:10032000096801601748016841F0010101604FF060
:10033000E020154941614FF0070101614FF00001D4
:10034000C0F8181D4FF07F41C0F81C1D0F49C0F8C0
:10035000201D7047FFF7FEBFFFF7FEBFFFF7FEBF90
:1003600001B5BDE80140704701B500F091F8BDE866
:1003700001407047FFF7FEBFFFF7FEBF0000000817
:100380006CB10020001000E06F6408000000FF4026
:100390004FF000002A4A1060EFF3148020F00400B0
:1003A00080F3148862B64FF080504FF0E021C1F81E
:1003B000040DBFF34F8FBFF36F8FFEE72148224A32
:1003C0004FF00003016891B10360EFF3098C2CE951
:1003D000F00F1EF0100F01D12CED108A1B4C4CF8C1
:1003E00004ED2568C1F808C00DB18D61236072B6B7
:1003F0001168B1B1016062B64F68144C8D6907F1A4
:1004000001074F602560D1F808C05CF804EB1EF0CE
:10041000100F01D1BCEC108ABCE8F00F8CF30988F6
:10042000704772B61168016009B962B6F9E74FF01A
:1004300000674FF0E028C8F8047D62B6DCE770473B
:1004400008B2002070B1002074B1002074BB0020FD
:10045000026922F00702A2F144026FF00203136066
:100460004FF0000353609360D36013615361936155
:10047000D361136253629362D362136353634FF089
:10048000FF339363D1634FF08073136482607047CE
:100490002249086800F101000860214B1A683AB14E
:1004A000A2F101021A601AB91E4B4FF00100186048
:1004B0001D490868026822B11C4B4FF001021A6006
:1004C00008E000F104001A4B1A68904201D1194B60
:1004D00018680860134B1A6812B914490868D0B13B
:1004E0002DE901401149086808B113F0CDFB0D4B0F
:1004F0001A6872B113F0B8FA0F48016849B90F4889
:1005000001680F4A13680F484FF08052994200D09B
:100510000260BDE80140BFF34F8F704714B2002066
:1005200074BB002018B20020A4B20020A8B20020A2
:10053000A0B200209CB2002008B2002070B10020C0
:1005400074B1002004ED00E0034613F8012B002AEB
:10055000FBD1181A0138704753B94AB9002908BFAE
:1005600000281CBF4FF0FF314FF0FF3000F088B97A
:10057000ADF1080C6DE904CE00F006F8DDF804E0FA
:10058000DDE9022304B070472DE9F047089D8E464F
:1005900004468846002B4AD18A42174662D9B2FAED
:1005A00082F64EB1C6F1200301FA06F820FA03F3F1
:1005B000B74043EA0808B4404FEA174E1FFA87FCD9
:1005C000B8FBFEF1230C0EFB118843EA084301FB44
:1005D0000CF29A4209D9FB1801F1FF3080F0EA8051
:1005E0009A4240F2E78002393B449A1AA3B2B2FB26
:1005F000FEF00EFB102243EA024300FB0CFC9C457C
:1006000009D9FB1800F1FF3280F0D6809C4540F2FA
:10061000D3803B44023840EA0140A3EB0C030021A5
:100620001DB1F3400022C5E90032BDE8F0878B42DE
:1006300005D90DB1C5E9000100210846F5E7B3FA77
:1006400083F1002946D1734502D3824200F205812D
:10065000841A6EEB030201209046002DE5D0C5E917
:100660000048E2E7002A00F09080B2FA82F6002EFD
:1006700040F0A4808A1A030C4FEA174E80B2BCB235
:100680000121B2FBFEFC0EFB1C2243EA024304FBE9
:100690000CF29A4207D9FB180CF1FF3802D29A42A9
:1006A00000F2E080C4469B1AB3FBFEF20EFB12334D
:1006B00040EA034302FB04F49C4207D9FB1802F111
:1006C000FF3002D29C4200F2CA8002461B1B42EA63
:1006D0000C40A5E7C1F120068B4022FA06F71F4324
:1006E0000EFA01F420FA06F32EFA06FE4FEA174935
:1006F000234300FA01F81FFA87FCBEFBF9F01C0C3B
:1007000009FB10EE44EA0E4400FB0CFEA64502FA7B
:1007100001F209D93C1900F1FF3A80F09C80A6450E
:1007200040F2998002383C44A4EB0E041FFA83FE89
:10073000B4FBF9F309FB13444EEA044403FB0CFC3D
:10074000A44508D93C1903F1FF3E80F08280A445FE
:100750007FD9023B3C4443EA0040A4EB0C04A0FBDD
:1007600002EC64457346E14662D35FD05DB1B8EBFD
:10077000030264EB090404FA06F622FA01F31E43AD
:10078000CC40C5E9006400214FE7B1FBF2FC010C4D
:1007900041EA0E4180B240EA01423B4638463C46BF
:1007A000B846BE462026B1FBF7F1A2EB080241EAAB
:1007B0000C4166E7014618E710462CE7C6F1200217
:1007C0002EFA02F3B740B14020FA02F24FEA174E78
:1007D0000A43B3FBFEF8BCB20EFB1833110C41EA1E
:1007E000034108FB04F9B04089454FEA104380B249
:1007F0003ED9791808F1FF3C01D289451FD8A1EBF9
:100800000901B1FBFEF909FB04F80EFB191192B2C4
:1008100042EA0142424529D2BA1809F1FF31C4D255
:100820004245C2D2A9F102013A44BEE7F0459DD249
:10083000BEEB02036CEB070C0138E14696E7A7EB31
:1008400009094944A8F1020CB1FBFEF909FB04F8BF
:10085000DBE773467FE7504666E70846FDE63B4424
:10086000023A33E7ACF1020C3B441CE749469CE7F3
:10087000A1EB0901C446B1FBFEF909FB04F8C4E78A
:10088000704700BF80B586B002AF78600023FB6080
:10089000342300934FF42053224A2349234813F072
:1008A0009DFC0346002B0AD1204BBB60B86800F0CA
:1008B000E3FBF860FB68002B01D000BFFDE73423A9
:1008C00000934FF420531A4A1A491B4813F086FC30
:1008D0000346002B0AD1184BBB60B8680CF006FA2F
:1008E000F860FB68002B01D000BFFDE734230093C4
:1008F0004FF4A043114A1249124813F06FFC03460B
:10090000002B0AD10F4BBB60B86818F09DFFF86050
:10091000FB68002B01D000BFFDE700BF1037BD46CC
:1009200080BD00BF00000024B0A60108BC06002066
:1009300000280024C4A60108F006002000000424BA
:10094000D8A601082407002080B400AF00BFBD4630
:100950005DF8047B704780B584B000AF786013F019
:1009600011F9F86007E078680CF028FA0346002BCC
:1009700001D1002309E013F005F90246FB68D31A00
:1009800042F20F729342EED9012318461037BD464A
:1009900080BD000080B586B000AF78607F4B01223B
:1009A0001A607E4B1B68012B0AD10120FFF7D3FF91
:1009B0000346002B04D07B689022C3F8BC22E9E0F8
:1009C0007B68D3F8C03203F01F037B617B68D3F8E8
:1009D000B832082B00F2D48001A252F823F000BFF5
:1009E000530A0008890A0008BD0A0008C70A00085F
:1009F000050A0008D10A0008810B0008650B0008F1
:100A00003D0A00087B680022C3F8BC221C23002298
:100A10006349644813F0CAFE0346002B09D11C2326
:100A200000226149614813F0C1FE0346002B00F02B
:100A3000AC807B689022C3F8BC22A6E07B680022D1
:100A4000C3F8BC22574813F047FF584813F044FF3F
:100A5000A0E07B689022C3F8BC227B68D3F8C42254
:100A60007B68D3F8A032D1187B68D3F8C8227B69A1
:100A7000786800F09DF80346002B40F088807B6882
:100A80000022C3F8BC2282E07B689022C3F8BC221B
:100A90007B68D3F8C4227B68D3F8A032D1187B6876
:100AA000D3F8C8227B69786800F040F90346002B30
:100AB0006FD17B680022C3F8BC226AE07B68002209
:100AC000C3F8BC2266E07B680022C3F8BC2261E068
:100AD0007B68D3F8C8227B690021786800F068F849
:100AE00038613B69002B04D07B683A69C3F8BC22AB
:100AF00050E00023FB607B68D3F8C00207F10803D5
:100B000007F10C0200210DF0D5F938613B69002B8B
:100B100004D07B689022C3F8BC223BE0FB68002B2A
:100B20001BD00120FFF717FF0346002B04D07B6882
:100B30009022C3F8BC222DE0F9687B68D3F8C82264
:100B40007B69786800F034F838613B69002B04D089
:100B50007B683A69C3F8BC221CE07B680022C3F8BA
:100B6000BC2217E07B68D3F8C8227B690021786833
:100B700000F0DCF838617B683A69C3F8BC2209E010
:100B80007B689022C3F8BC2204E000BF02E000BFF3
:100B900000E000BF1837BD4680BD00BF60090020DF
:100BA000ECA60108CCB0002008A70108B0B00020D6
:100BB00080B590B000AFF860B9607A603B60002308
:100BC000FB633B68002B61D0FB68D3F8C0327B63CA
:100BD0000023FB634CE0BA68531CBB6001235049FF
:100BE00001200CF001F90346BB63BB6B002B01D065
:100BF000902390E042F210714A4813F0ABFE034696
:100C0000002B01D0902386E0454B3B634FF40073EB
:100C1000FB62FB6A002B1DDD3B6B03F01F02FB6ACE
:100C20001344BB623B6B7B62BFF34F8F00BF3E4AF6
:100C30007B6AC2F85C327B6A20337B62BB6A203BF2
:100C4000BB62BB6A002BF2DCBFF34F8F00BFBFF368
:100C50006F8F00BF00BF4FF40072796B30480FF008
:100C6000FBFF7B6B03F500737B63FB6B0133FB6363
:100C7000FB6B7A689A42AED8FB6B7A689A4202D1D3
:100C80000023BB6346E02123BB6343E0FB68D3F84A
:100C9000C0127B68BA6801200CF0A6F80346BB635B
:100CA000BB6B002B01D0902335E042F210711D4840
:100CB00013F050FE0346002B01D090232BE0FB687D
:100CC000D3F8C0227B685B023A62FB61FB69002BB0
:100CD0001DDD3B6A03F01F02FB691344BB613B6AE5
:100CE0007B61BFF34F8F00BF0F4A7B69C2F85C3254
:100CF0007B6920337B61BB69203BBB61BB69002BF7
:100D0000F2DCBFF34F8F00BFBFF36F8F00BF00BF98
:100D10000023BB63BB6B18464037BD4680BD00BF98
:100D200060070020CCB0002000ED00E080B590B05E
:100D300000AFF860B9607A603B600023FB633B68FA
:100D4000002B61D0FB68D3F8C0327B630023FB63C8
:100D50004CE04FF400725149786B0FF07DFF7B6BD4
:100D600003F500737B634D4B3B634FF40073FB62F1
:100D7000FB6A002B1DDD3B6B03F01F02FB6A134473
:100D8000BB623B6B7B62BFF34F8F00BF444A7B6A01
:100D9000C2F868327B6A20337B62BB6A203BBB624D
:100DA000BB6A002BF2DCBFF34F8F00BFBFF36F8F26
:100DB00000BF00BFBA68531CBB6001233749012044
:100DC0000CF02EF80346BB63BB6B002B01D09023C5
:100DD0005FE042F21071334813F0BCFD0346002B74
:100DE00001D0902355E0FB6B0133FB63FB6B7A680A
:100DF0009A42AED8FB6B7A689A4202D10023BB6359
:100E000046E02123BB6343E0FB68D3F8C0227B6844
:100E10005B023A62FB61FB69002B1DDD3B6A03F05C
:100E20001F02FB691344BB613B6A7B61BFF34F8FB9
:100E300000BF1B4A7B69C2F868327B6920337B6143
:100E4000BB69203BBB61BB69002BF2DCBFF34F8F5A
:100E500000BFBFF36F8F00BF00BFFB68D3F8C012A5
:100E60007B68BA6801200BF0DBFF0346BB63BB6BFA
:100E7000002B01D090230CE042F21071094813F0CE
:100E800069FD0346002B01D0902302E00023BB63E1
:100E9000BB6B18464037BD4680BD00BF60070020D1
:100EA00000ED00E0B0B00020DFF830D100F022FF0C
:100EB00000F090FE4A48016841F0C0410160494895
:100EC000016841F08051016047484849484A002381
:100ED00002E0D458C4500433C4188C42F9D3002122
:100EE00003E0444B5B58435004314348434B4218A2
:100EF0009A42F6D3002103E0414B5B584350043142
:100F00004048414B42189A42F6D3002103E03F4B40
:100F10005B58435004313E483E4B42189A42F6D348
:100F2000002103E03C4B5B58435004313B483C4BB1
:100F300042189A42F6D3002103E03A4B5B584350E3
:100F400004313948394B42189A42F6D3002103E064
:100F5000374B5B58435004313648374B42189A425E
:100F6000F6D3364A364C002301E013600432A24225
:100F7000FBD3344A344C002301E013600432A24214
:100F8000FBD3324A324C002301E013600432A24208
:100F9000FBD3304A304C002301E013600432A242FC
:100FA000FBD32E4A2E4C002301E013600432A242F0
:100FB000FBD32C4A2C4C002301E013600432A242E4
:100FC000FBD32A4A2A4C002301E013600432A242D8
:100FD000FBD319F02FFB00F00DF970470000022041
:100FE000DC440258E044025800040020840400203D
:100FF00078A8010878A80108000000240000002457
:1010000078A80108000004240000042478A801083E
:10101000000000300000003078A8010800400030D7
:101020000040003078A801080000003800000038B7
:1010300078A80108000080380000803800000024F3
:101040000050002400000424E45404240000003074
:101050000000003000400030004000300000003848
:10106000000000380000803800008038A006002012
:101070009CC10020FEE7000080B58EB008AF78600C
:1010800000237B617B683B6107F10C0100234FF477
:101090008052386913F02EF80346002B01D002234A
:1010A0001AE0FB68B0220692012205920022049207
:1010B0000A2203920A2202924FF480520192009374
:1010C0000023074A0749084813F0A4FC0346002BF5
:1010D00001D00E2300E07B6918461837BD4680BD5D
:1010E000ED10000824A701086409002080B483B033
:1010F00000AF786000BF0C37BD465DF8047B7047D9
:1011000080B500AF10F0B0FC00BF80BD80B489B0E6
:1011100000AF374BD3F8E030354A43F01003C2F844
:10112000E030334BD3F8E03003F01003FB61FB6990
:101130002F4BD3F8E0302E4A43F02003C2F8E030C2
:101140002B4BD3F8E03003F02003BB61BB69284B85
:10115000D3F8E030264A43F08003C2F8E030244B55
:10116000D3F8E03003F080037B617B69204BD3F838
:10117000E0301F4A43F00403C2F8E0301C4BD3F8C0
:10118000E03003F004033B613B69194BD3F8E030D6
:10119000174A43F00103C2F8E030154BD3F8E030B2
:1011A00003F00103FB60FB68114BD3F8E030104AF9
:1011B00043F00203C2F8E0300D4BD3F8E03003F007
:1011C0000203BB60BB680A4BD3F8E030084A43F027
:1011D0000803C2F8E030064BD3F8E03003F0080310
:1011E0007B607B6800BF2437BD465DF8047B704799
:1011F0000044025880B586B000AF4FF000637B61B9
:10120000464B3B614FF480627969386919F036FAD0
:10121000434B4FF000529A6000F000F9404B5B697D
:1012200003F40033002B1BD1BFF34F8F00BFBFF37C
:101230006F8F00BF3A4B0022C3F85022BFF34F8F8D
:1012400000BFBFF36F8F00BF354B5B69344A43F477
:1012500000335361BFF34F8F00BFBFF36F8F00E0C8
:1012600000BF2F4B5B6903F48033002B38D12C4B2C
:101270000022C3F88420BFF34F8F00BF284BD3F860
:101280008030BB60BB685B0BC3F30E037B60BB6845
:10129000DB08C3F309033B607B685A0143F6E07344
:1012A00013403A6892071E491343C1F860323B6805
:1012B0005A1E3A60002BEFD17B685A1E7A60002BD1
:1012C000E5D1BFF34F8F00BF154B5B69144A43F460
:1012D00080335361BFF34F8F00BFBFF36F8F00E0C8
:1012E00000BF00F071FF00F021F8FFF70FFF00F0E2
:1012F00019FD00F065FD00F01FF900F0C5FA09497D
:10130000094808F0F7F80346FB60FB68002B01D0A2
:1013100000F00CF9FFF7F4FE00BFFDE7000000202D
:1013200000ED00E0140A0020940A002080B59CB073
:1013300000AF07F124034C220021184619F072F97E
:101340003B1D20220021184619F06CF9022003F001
:101350007BFE00233B602B4B9B692A4A23F44043CE
:101360009361284B9B6903F440433B603B6800BF9B
:10137000244B9B6903F40053B3F5005FF8D10123BC
:101380007B624FF4A023BB620223BB640223FB6495
:1013900005233B6537237B650123BB650B23FB6579
:1013A00002233B660C237B660023BB660023FB669F
:1013B00007F12403184603F091FE0346002B01D0E9
:1013C00000F0B4F83F237B600323BB600023FB6085
:1013D00008233B6140237B614023BB614FF4806362
:1013E000FB6140233B623B1D0321184604F050FA89
:1013F0000346002B01D000F099F800BF7037BD46BE
:1014000080BD00BF0048025880B483B000AF786050
:10141000396072B600BF00BFFDE7000080B584B040
:1014200000AF3B4600221A605A609A60DA6001F011
:101430002BF801233B7000237B704FF010537B602F
:1014400011233B7200237B720123BB720323FB72C7
:1014500000233B7300237B730123BB730123FB73C6
:101460003B46184601F048F801237B704FF0C063FB
:101470007B600F233B7200237B720023BB7200232F
:10148000BB733B46184601F037F802237B704FF0E0
:1014900040537B600D233B720123BB720023FB731F
:1014A0003B46184601F028F803237B70144B7B6001
:1014B0003B46184601F020F804237B704FF01043A0
:1014C0007B6019233B720023BB720123BB733B4635
:1014D000184601F011F805237B700A4B7B600F233F
:1014E0003B720123BB720023BB733B46184601F0DD
:1014F00003F8042000F0E0FF00BF1037BD4680BDB8
:10150000004000300000042480B582B000AF786055
:101510007B681B68044A934201D100F091FE00BF32
:101520000837BD4680BD00BF0008004080B400AF52
:1015300072B600BF00BFFDE780B586B000AF3B4686
:1015400000221A605A609A60DA601A615A612A4B66
:101550002A4A1A60284B04225A60274B00229A60BC
:10156000254B4FF00072DA60234B1A221A61224B8E
:1015700002225A61204B00229A611F4B0022DA613D
:101580001D4B00221A621C4B01225A621A4B002288
:101590009A62194B4FF08052DA62174B0B221A6392
:1015A000154B00225A63144B00229A63124BCA2235
:1015B000DA63114801F0B0F90346002B01D0FFF7C0
:1015C000B5FF01233B6001237B600123BB604FF02B
:1015D0000113FB600A4B3B613B4641F288321946DE
:1015E000054801F0F7FB0346002B01D0FFF79EFFF3
:1015F00000BF1837BD4680BD380A00200050005299
:101600000200010080B5BCB000AF786007F1DC03D8
:1016100000221A605A609A60DA601A6107F12003AA
:10162000B8220021184618F0FDFF7B681B68904A1D
:10163000934240F019814FF000724FF00003C7E968
:1016400008230523BB622223FB6202233B630223A0
:101650007B630423BB63C023FB6300233B64002341
:101660007B642023FB6607F12003184604F0C8FCC6
:101670000346002B01D0FFF759FF7E4BD3F8D4303F
:101680007C4A43F40013C2F8D4307A4BD3F8D430F8
:1016900003F40013FB61FB69764BD3F8D430754A31
:1016A00043F48043C2F8D430724BD3F8D43003F4FF
:1016B0008043BB61BB696F4BD3F8E0306D4A43F0A8
:1016C0001003C2F8E0306B4BD3F8E03003F01003A6
:1016D0007B617B69674BD3F8E030664A43F02003B7
:1016E000C2F8E030634BD3F8E03003F020033B61F5
:1016F0003B69604BD3F8E0305E4A43F00103C2F827
:10170000E0305C4BD3F8E03003F00103FB60FB6892
:10171000584BD3F8E030574A43F00203C2F8E030A8
:10172000544BD3F8E03003F00203BB60BB680423E2
:10173000C7F8DC300223C7F8E0300023C7F8E430F4
:101740000323C7F8E8300923C7F8EC3007F1DC03BE
:101750001946494800F010FF0F23C7F8DC30022378
:10176000C7F8E0300023C7F8E4300323C7F8E830B7
:101770000923C7F8EC3007F1DC0319463F4800F0B5
:10178000FBFE4FF41073C7F8DC300223C7F8E030DB
:101790000023C7F8E4300323C7F8E8300A23C7F86A
:1017A000EC3007F1DC031946344800F0E5FE4FF455
:1017B0008063C7F8DC300223C7F8E0300023C7F8A5
:1017C000E4300323C7F8E8300923C7F8EC3007F109
:1017D000DC031946294800F0CFFE0223C7F8DC30AD
:1017E0000223C7F8E0300023C7F8E4300323C7F82A
:1017F000E8300C23C7F8EC3007F1DC031946204829
:1018000000F0BAFE0423C7F8DC300223C7F8E0304A
:101810000023C7F8E4300323C7F8E8300623C7F8ED
:10182000EC3007F1DC031946154800F0A5FE402313
:10183000C7F8DC300223C7F8E0300023C7F8E430F3
:101840000323C7F8E8300A23C7F8EC3007F1DC03BC
:1018500019460C4800F090FE002200215C2000F0A8
:10186000EBFD5C2000F002FE00BFF037BD4680BDFE
:101870000050005200440258001002580014025850
:1018800000000258000402582DE9B04F8CB000AFA0
:101890001E4B1F4A1A601D4B00225A601B4B002230
:1018A0009A601A4B4FF48042DA60184B4FF40032C2
:1018B0001A61164B00225A61144806F087FF03464E
:1018C000002B01D0FFF732FE3B1D19460F4807F0F1
:1018D00011FE0346002B14D17B6900229A469346E1
:1018E000BB6900229846914608FB0BF20AFB09F3FC
:1018F0001344AAFB08452B441D46C7E90A45C7E91E
:101900000A4500BF3037BD46BDE8B08F940A0020BD
:101910000024024880B5BAB000AF786007F1D40364
:1019200000221A605A609A60DA601A6107F118039F
:10193000B8220021184618F075FE7B681B683C4AE7
:10194000934271D14FF480324FF00003C7E9062370
:101950000023BB6607F11803184604F051FB034649
:10196000002B01D0FFF7E2FD324BD3F8DC30314AD7
:1019700043F40073C2F8DC302E4BD3F8DC3003F4B0
:1019800000737B617B692B4BD3F8E030294A43F02D
:101990000203C2F8E030274BD3F8E03003F0020333
:1019A0003B613B69234BD3F8E030224A43F0080304
:1019B000C2F8E0301F4BD3F8E03003F00803FB60BF
:1019C000FB684CF21803C7F8D4300223C7F8D830AC
:1019D0000023C7F8DC300323C7F8E0300923C7F839
:1019E000E43007F1D4031946134800F0C5FDC023C5
:1019F000C7F8D4300223C7F8D8300023C7F8DC304A
:101A00000323C7F8E0300B23C7F8E43007F1D40311
:101A100019460A4800F0B0FD002205217C2000F0A4
:101A20000BFD7C2000F022FD00BFE837BD4680BDE5
:101A3000002402480044025800040258000C0258D6
:101A400080B483B000AF0A4BD3F8F430084A43F0B7
:101A50000203C2F8F430064BD3F8F43003F002036B
:101A60007B607B6800BF0C37BD465DF8047B704728
:101A70000044025880B590B000AF78607B680F2BAF
:101A800027D8002279681E2000F0D6FC1E2000F026
:101A9000EDFC294A7B681360284BD3F8E830274ACD
:101AA00043F00403C2F8E830244BD3F8E83003F0E5
:101AB0000403FB60FB6807F1100207F114031146F1
:101AC000184604F05BFABB6ABB63BB6B002B06D104
:101AD00001E001232BE004F03BFAF86304E004F09A
:101AE00037FA03465B00FB63FB6B154AA2FB03233B
:101AF0009B0C013B7B63134B134A1A60114B40F262
:101B0000E732DA600F4A7B6B53600E4B00221A619A
:101B10000C4B00229A600B4808F0BCFA0346002BDD
:101B200004D1084808F00EFB034600E001231846E4
:101B30004037BD4680BD00BF080400200044025865
:101B400083DE1B43100B00200008004080B400AF70
:101B500000BFFDE780B400AF00BFFDE780B400AF79
:101B600000BFFDE780B400AF00BFFDE780B400AF69
:101B700000BFFDE780B400AF00BFBD465DF8047B49
:101B80007047000080B500AF024808F061FB00BF5D
:101B900080BD00BF100B002080B500AF024802F0EE
:101BA000AFF800BF80BD00BF0050042480B500AF77
:101BB000024800F06DFF00BF80BD00BF380A002062
:101BC00080B500AF024807F071F800BF80BD00BFCC
:101BD000940A002080B400AF3E4BD3F888303D4AD1
:101BE00043F47003C2F888303B4B1B6803F00F03CB
:101BF000062B07D8384B1B6823F00F03364A43F0F7
:101C000007031360354B1B68344A43F0010313602C
:101C1000324B00221A61314B1A683049304B134065
:101C20000B602D4B1B6803F00803002B07D02A4BD9
:101C30001B6823F00F03284A43F007031360274B68
:101C400000229A61254B0022DA61244B00221A629D
:101C5000224B244A9A62214B234ADA621F4B234AC1
:101C60001A631E4B00225A631C4B204A9A631B4B7B
:101C70000022DA63194B1D4A1A64184B00225A6479
:101C8000164B1B68154A23F480231360134B002264
:101C90001A66124BD3F8D43003F48053002B13D1BF
:101CA0000E4BD3F8D4300D4A43F48053C2F8D430ED
:101CB0000F4B43F2D2021A60084BD3F8D430074AD4
:101CC00023F48053C2F8D43000BFBD465DF8047BD6
:101CD000704700BF00ED00E00020005200440258B1
:101CE0007FEDF6EA000202020000FF01800201011E
:101CF0000040005280B400AF094BDB68084A43F053
:101D00000203D36000BF064B5B6803F40053002B53
:101D1000F9D000BF00BFBD465DF8047B704700BF2F
:101D20000048025880B588B000AF07F110030022C8
:101D30001A605A609A60DA603B1D00221A605A608D
:101D40009A601D4B1D4A1A601B4B00225A601A4BA9
:101D500000229A60184B4FF6FF72DA60164B002291
:101D60001A61154B00229A61134808F093F9034653
:101D7000002B01D0FFF7DAFB4FF480533B6107F1F2
:101D8000100319460C4808F06BFB0346002B01D0EA
:101D9000FFF7CCFB00237B600023FB603B1D194653
:101DA000054808F0C7FD0346002B01D0FFF7BEFB36
:101DB00000BF2037BD4680BD5C0B00200004004002
:101DC00080B584B000AF3B1D00221A605A609A6053
:101DD000144B154A1A60134B86225A60114B00228D
:101DE0009A60104B4CF24F32DA600E4B80229A61AF
:101DF0000C4808F04FF90346002B01D0FFF796FB83
:101E000000237B600023FB603B1D1946054808F05A
:101E100091FD0346002B01D0FFF788FB00BF103770
:101E2000BD4680BDA80B00200014004080B485B0E2
:101E300000AF78607B681B68164A93420FD1164B3F
:101E4000D3F8E830144A43F00203C2F8E830124BEA
:101E5000D3F8E83003F00203FB60FB6813E07B6813
:101E60001B680E4A93420ED10B4BD3F8E8300A4A56
:101E700043F02003C2F8E830074BD3F8E83003F012
:101E80002003BB60BB6800BF1437BD465DF8047B10
:101E9000704700BF00040040004402580014004096
:101EA00080B500AF154B164A1A60144B09221A71FF
:101EB000124B0022DA71114B01229A710F4B012251
:101EC0005A720E4B00229A720C4B0022DA720B4BA4
:101ED00000221A73094B00229A73084B0022DA730E
:101EE000064B00221A74054801F08EFD0346002BB4
:101EF00001D0FFF71BFB00BF80BD00BF00500424D2
:101F00000000044080B5BCB000AF786007F1DC038E
:101F100000221A605A609A60DA601A6107F12003A1
:101F2000B8220021184618F07DFB7B681B68624AC6
:101F3000934240F0BC804FF480224FF00003C7E989
:101F400008231923BB646023FB6402233B6504233D
:101F50007B650223BB654FF48063FB6500233B6612
:101F600000237B664FF40013C7F8A43007F1200369
:101F7000184604F045F80346002B01D0FFF7D6FAC7
:101F800003F09CF84D4BD3F8E0304C4A43F0040387
:101F9000C2F8E030494BD3F8E03003F00403FB61B2
:101FA000FB69464BD3F8E030444A43F00103C2F8E2
:101FB000E030424BD3F8E03003F00103BB61BB6972
:101FC0003E4BD3F8E0303D4A43F00203C2F8E03024
:101FD0003A4BD3F8E03003F002037B617B690D23B9
:101FE000C7F8DC300223C7F8E0300023C7F8E4303C
:101FF0000223C7F8E8300A23C7F8EC3007F1DC0306
:1020000019462F4800F0B8FA2823C7F8DC3002231D
:10201000C7F8E0300023C7F8E4300223C7F8E830FF
:102020000A23C7F8EC3007F1DC031946254800F015
:10203000A3FA43F62343C7F8DC300223C7F8E030A5
:102040000023C7F8E4300223C7F8E8300A23C7F8B2
:10205000EC3007F1DC0319461B4800F08DFA174BF2
:10206000D3F8D830154A43F00073C2F8D830134B78
:10207000D3F8D83003F000733B613B690F4BD3F8C2
:10208000D8300E4A43F08063C2F8D8300B4BD3F8F7
:10209000D83003F08063FB60FB68002202214D20F2
:1020A00000F0CAF94D2000F0E1F900F077F800BF28
:1020B000F037BD4680BD00BF000004400044025818
:1020C00000080258000002580004025880B487B08B
:1020D00000AF786000237B614FF47A733B6100238B
:1020E000FB60FB687B681B04114A43F000731360BC
:1020F0000F4B1B687B6106E00D4B1B687B617B69A6
:1021000003F08063FB607B6903F00063002B04D164
:102110003B695A1E3A61002BEED1054B1B687B616F
:102120007B69DBB218461C37BD465DF8047B7047FF
:102130003400044080B487B000AF78603960642315
:102140003B610023FB607B681A043B68DBB21343EE
:10215000114A43F0107313600F4B1B687B6106E05C
:102160000D4B1B687B617B6903F08063FB607B69BF
:1021700003F00063002B04D13B695A1E3A61002B27
:10218000EED1FB68044B1B687B61002318461C37AB
:10219000BD465DF8047B70473400044080B582B0D2
:1021A00000AF0420FFF792FF78607B6843F02003C4
:1021B00019460420FFF7BEFF4FF4FA6000F060F804
:1021C00000BF0837BD4680BD80B582B000AF032098
:1021D00000F027F903F012FD0246154B9B691B0A1C
:1021E00003F00F031349CB5C03F01F0322FA03F340
:1021F0007B600F4B9B6903F00F030E4AD35C03F027
:102200001F037A6822FA03F30B4A13600B4A7B68B8
:1022100013600F20FFF72EFC0346002B01D0012393
:1022200002E0FFF70DFC002318460837BD4680BDCD
:102230000044025858A801080404002000040020AB
:1022400080B400AF064B1B781A46064B1B6813443C
:10225000044A136000BFBD465DF8047B704700BFB1
:102260000C040020F40B002080B400AF034B1B686B
:102270001846BD465DF8047B704700BFF40B002094
:1022800080B584B000AF7860FFF7EEFFB8607B6880
:10229000FB60FB68B3F1FF3F05D00A4B1B781A4681
:1022A000FB681344FB6000BFFFF7DEFF0246BB681C
:1022B000D31AFA689A42F7D800BF00BF1037BD465C
:1022C00080BD00BF0C04002080B485B000AF7860F2
:1022D0007B6803F00703FB600B4BDB68BB60BA68ED
:1022E0004FF6FF031340BB60FB681A02BB681A433A
:1022F000064B1343BB60044ABB68D36000BF14376E
:10230000BD465DF8047B704700ED00E00000FA0573
:1023100080B400AF044BDB681B0A03F007031846C8
:10232000BD465DF8047B704700ED00E080B483B0EB
:1023300000AF0346FB80B7F90630002B0BDBFB88B0
:1023400003F01F020749B7F906305B09012000FAC4
:1023500002F241F8232000BF0C37BD465DF8047B34
:10236000704700BF00E100E080B483B000AF0346D7
:102370003960FB80B7F90630002B0ADB3B68DAB224
:102380000C49B7F906301201D2B20B4483F800238E
:102390000AE03B68DAB20849FB8803F00F03043B0C
:1023A0001201D2B20B441A7600BF0C37BD465DF85D
:1023B000047B704700E100E000ED00E080B489B0EC
:1023C00000AFF860B9607A60FB6803F00703FB6157
:1023D000FB69C3F10703042B28BF0423BB61FB691E
:1023E0000433062B02D9FB69033B00E000237B6129
:1023F0004FF0FF32BB6902FA03F3DA43BB681A40BD
:102400007B699A404FF0FF317B6901FA03F3D943AE
:102410007B680B40134318462437BD465DF8047BA8
:10242000704780B582B000AF78607868FFF74CFFE6
:1024300000BF0837BD4680BD80B586B000AF0346FB
:10244000B9607A60FB81FFF763FF78617A68B968E9
:102450007869FFF7B3FF0246B7F90E301146184608
:10246000FFF782FF00BF1837BD4680BD80B582B040
:1024700000AF0346FB80B7F906301846FFF756FF5A
:1024800000BF0837BD4680BD80B400AFBFF35F8F8B
:1024900000BF074B5B6A064A23F480335362054B47
:1024A00000225A6000BFBD465DF8047B704700BF44
:1024B00000ED00E090ED00E080B483B000AF786004
:1024C0000B4A7B6843F0010353600A4B5B6A094A7D
:1024D00043F480335362BFF34F8F00BFBFF36F8F5E
:1024E00000BF00BF0C37BD465DF8047B704700BFDE
:1024F00090ED00E000ED00E080B483B000AF7860C4
:102500007B685A781B4B9A601A4B1B69194A23F057
:1025100001031361174A7B685B68D3607B681B7B90
:102520001A077B68DB7A1B061A437B689B7ADB04FD
:102530001A437B685B7B9B041A437B689B7B5B0431
:102540001A437B68DB7B1B041A437B685B7A1B02A4
:102550001A437B681B7A5B0013437A681278114632
:10256000044A0B43136100BF0C37BD465DF8047B82
:10257000704700BF90ED00E080B489B000AF786094
:1025800039600023FB61864B7B618CE13B681A68F4
:102590000121FB6901FA03F313403B613B69002B06
:1025A00000F07E813B685B6803F00303012B05D0DC
:1025B0003B685B6803F00303022B30D17B689B68A8
:1025C000BB61FB695B00032202FA03F3DB43BA69D8
:1025D0001340BB613B68DA68FB695B0002FA03F3F6
:1025E000BA691343BB617B68BA699A607B685B68B0
:1025F000BB610122FB6902FA03F3DB43BA691340B2
:10260000BB613B685B681B0903F00102FB6902FACE
:1026100003F3BA691343BB617B68BA695A603B68CC
:102620005B6803F00303032B17D07B68DB68BB6197
:10263000FB695B00032202FA03F3DB43BA69134030
:10264000BB613B689A68FB695B0002FA03F3BA69F5
:102650001343BB617B68BA69DA603B685B6803F06F
:102660000303022B23D1FB69DA087B68083253F895
:102670002230BB61FB6903F007039B000F2202FAC3
:1026800003F3DB43BA691340BB613B681A69FB691A
:1026900003F007039B0002FA03F3BA691343BB611B
:1026A000FB69DA087B680832B96943F822107B6855
:1026B0001B68BB61FB695B00032202FA03F3DB4387
:1026C000BA691340BB613B685B6803F00302FB69B6
:1026D0005B0002FA03F3BA691343BB617B68BA6912
:1026E0001A603B685B6803F44033002B00F0D8802D
:1026F0002C4BD3F8F4302B4A43F00203C2F8F430E9
:10270000284BD3F8F43003F00203FB60FB68264A41
:10271000FB699B08023352F82330BB61FB6903F06D
:1027200003039B000F2202FA03F3DB43BA69134051
:10273000BB617B681D4A93424AD07B681C4A934226
:102740002BD07B681B4A934225D07B681A4A934260
:102750001FD07B68194A934219D07B68184A93426C
:1027600013D07B68174A93420DD07B68164A934278
:1027700007D07B68154A934201D1092329E00A2337
:1027800027E0072325E0062323E0052321E0042397
:102790001FE003231DE002231BE0012319E000BF1B
:1027A00080000058004402580004005800000258FD
:1027B0000004025800080258000C02580010025889
:1027C0000014025800180258001C02580024025835
:1027D0000023FA6902F0030292009340BA6913439E
:1027E000BB613849FB699B080233BA6941F8232071
:1027F0004FF0B0431B68BB613B69DB43BA691340D0
:10280000BB613B685B6803F48013002B03D0BA699B
:102810003B691343BB614FF0B042BB6913604FF09B
:10282000B0435B68BB613B69DB43BA691340BB6182
:102830003B685B6803F40013002B03D0BA693B6963
:102840001343BB614FF0B042BB6953607B695B6867
:10285000BB613B69DB43BA691340BB613B685B68A2
:1028600003F40033002B03D0BA693B691343BB6107
:102870007B69BA695A607B691B68BB613B69DB4352
:10288000BA691340BB613B685B6803F48033002B7B
:1028900003D0BA693B691343BB617B69BA691A60AB
:1028A000FB690133FB613B681A68FB6922FA03F399
:1028B000002B7FF46BAE00BF00BF2437BD465DF830
:1028C000047B70470004005880B483B000AF786088
:1028D0007B68002B01D1012317E07B6893F83D3022
:1028E000DBB2022B04D07B6880229A6601230CE0C5
:1028F0007B68042283F83D207B681B68DA687B686C
:102900001B6822F00102DA60002318460C37BD462E
:102910005DF8047B7047000080B586B002AF786038
:102920000023FB73FFF7A0FCB8607B68002B02D18B
:102930000123FB73A5E07B6800225A657B681B6D51
:10294000002B40F09E807868FEF75CFE41F28831F3
:10295000786800F02FFA7B681B689A684B4B13402D
:102960007A68D1687A681269013A120411437A6868
:102970005269013A120211437A68526B11437A6824
:10298000D26911437A6812680B4393607B681B68B5
:10299000DB6823F4E0217B681A6A7B681B680A43C2
:1029A000DA607B681B6B19047B689A6B7B681B6819
:1029B0000A431A617B681B687A68D26B5A617B682C
:1029C0001B681B6823F4F8517B685B68013B1A02A3
:1029D0007B681B680A431A607B689B6D0093BB6829
:1029E00000222021786800F01DFF0346FB73FB7B6B
:1029F000002B46D17B681B68DB6823F0FF017B68F6
:102A00005B6A5A1E7B681B680A43DA607B681B6836
:102A10001B6823F040017B689A687B681B680A4347
:102A20001A607B681B68D3F8083123F0A0417B68EB
:102A30009A6A7B68DB6A1A437B681B680A43C3F89F
:102A400008217B681B681A687B681B6842F00102DA
:102A50001A607B689B69022B07D17B681B689A68A8
:102A60007B681B6842F002029A607B68DB68B3F106
:102A7000806F03D17B6801221A6502E07B68022225
:102A80001A65FB7B18461037BD4680BDF4F8E0F8A8
:102A900080B586B000AF78607B681B6850337B617F
:102AA0007B681B681B6A3B617B681B681B68FB605B
:102AB0007B681B6DBB603B6903F00403002B3AD0BD
:102AC000FB6803F48023002B35D0BB68182B0FD193
:102AD0007B681B6C1A787B691A707B681B6C5A1CAC
:102AE0007B681A647B689B6C5A1E7B689A6412E050
:102AF000BB68282B0FD17B681B6C7A691278D2B225
:102B00001A707B681B6C5A1C7B681A647B689B6C10
:102B10005A1E7B689A647B689B6C002B07D17B688C
:102B20001B681A687B681B6822F480221A60786828
:102B300000F004F9E7E03B6903F00203002B67D0E3
:102B4000FB6803F40033002B62D0BB68282B31D123
:102B50007B689B6C002B15D03B6903F47C53002BE6
:102B600010D07B681B6C7A691278D2B21A707B68BD
:102B70001B6C5A1C7B681A647B689B6C5A1E7B68B2
:102B80009A64BDE07B689B6C002B40F0B9807B6849
:102B90001B6802225A627B681B681A687B681B6884
:102BA00022F4E0221A607B6802221A65786800F03D
:102BB000D9F8A5E07B681B6802225A627B681B6813
:102BC0001A687B681B6822F4E0221A607B68022284
:102BD0001A65BB68182B03D1786800F0CDF88FE038
:102BE000BB68082B03D1786800F0B2F888E0BB68B6
:102BF000B3F5807F40F084807B685B6D002B03D150
:102C0000786800F091F87BE0786800F083F877E06E
:102C10003B6903F00803002B1ED0FB6803F400237C
:102C2000002B19D07B681B6808225A627B681B68DE
:102C30001B6803F48003002B0AD07B681B681A68AA
:102C40007B681B6822F410221A607B6802221A65D6
:102C5000786800F09BF856E03B6903F00103002B15
:102C60003CD0FB6803F48033002B37D07B681B68B3
:102C700001225A627B681B681A687B681B6822F411
:102C8000F8121A607B6802225A657B681B681B6811
:102C900003F00403002B1AD07B681B681A687B685A
:102CA0001B6822F004021A607B68DB6C184A9A6584
:102CB0007B68DB6C1846FFF707FE0346002B21D02C
:102CC0007B6802221A65786800F024F81AE07B68B5
:102CD00002221A65786800F01DF813E03B6903F0E2
:102CE0001003002B0FD0FB6803F48013002B0AD0D5
:102CF0007B681B6810225A62786800F051F802E085
:102D000000BF00E000BF00BF1837BD4680BD00BF58
:102D1000AD37000880B483B000AF786000BF0C37D7
:102D2000BD465DF8047B704780B483B000AF786027
:102D300000BF0C37BD465DF8047B704780B483B09C
:102D400000AF786000BF0C37BD465DF8047B70476C
:102D500080B483B000AF786000BF0C37BD465DF82B
:102D6000047B704780B483B000AF786000BF0C373D
:102D7000BD465DF8047B704780B483B000AF7860D7
:102D800000BF0C37BD465DF8047B704780B483B04C
:102D900000AF786000BF0C37BD465DF8047B70471C
:102DA00080B483B000AF786000BF0C37BD465DF8DB
:102DB000047B704780B483B000AF786039607B6873
:102DC0003A689A65002318460C37BD465DF8047BC7
:102DD0007047000080B594B000AFF860B9607A60C9
:102DE000002387F84F30002387F84630FB681B68C4
:102DF0009D4A934205D10023BB64012387F84530E7
:102E000004E00123BB64002387F84530002387F8E2
:102E100047301DE097F847300133D8B297F8472084
:102E200007F1140113465B001344DB000B44194601
:102E300000F030FD0346002B05D0012387F84F300A
:102E4000FB6808225A6597F84730013387F8473006
:102E500097F84730012BDDD997F84F30002B40F021
:102E60009984814B1B6803F00103002B0BD07E4B30
:102E70001B687D4A23F00103136097F8463043F046
:102E8000010387F84630794B1B6803F00103002BE0
:102E90000BD0764B1B68754A23F00103136097F83B
:102EA000463043F0020387F846307149BA6C134646
:102EB0005B001344DB0050333B44343B1B68013B55
:102EC0009B000B4459686A48BA6C13465B00134474
:102ED000DB0050333B44343B1B68013B21F48072E0
:102EE0009B0003445A60624B1B6803F00103002BF4
:102EF00000F0C0805E4B1B685D4A23F00103136045
:102F000097F84530012B40F06281594997F84520E8
:102F100013465B001344DB0050333B443C3B1B68CF
:102F2000013B9B000B445968514897F845201346D4
:102F30005B001344DB0050333B443C3B1B68013BCC
:102F400041F002029B0003445A6097F84520134663
:102F50005B001344DB0050333B44383B1B68002BC1
:102F60001FD0434997F8452013465B001344DB000C
:102F700050333B44383B1B68013B9B000B44596872
:102F80003B4897F8452013465B001344DB00503361
:102F90003B44383B1B68013B41F020029B0003444B
:102FA0005A6097F8452013465B001344DB0050330A
:102FB0003B44303B1B68002B23D02D4997F845201C
:102FC00013465B001344DB0050333B44303B1B682B
:102FD000013B03F001039B000B445968244897F818
:102FE000452013465B001344DB0050333B44303B29
:102FF0001B68013B03F0010341F480229B00034462
:103000005A6097F8452013465B001344DB005033A9
:103010003B442C3B1B68002B00F0D980144997F8E7
:10302000452013465B001344DB0050333B442C3BEC
:103030001B68013B03F001039B000B4459680C48DB
:1030400097F8452013465B001344DB0050333B44A4
:103050002C3B1B68013B03F0010341F080629B00A5
:1030600003445A60B3E000BF0050005200A0005279
:1030700000B40052BA6C13465B001344DB005033BB
:103080003B443C3B1B68002B00F0A1809549BA6C87
:1030900013465B001344DB0050333B443C3B1B684E
:1030A000013B9B000B4459688E48BA6C13465B0089
:1030B0001344DB0050333B443C3B1B68013B21F095
:1030C00001029B0003445A60BA6C13465B00134430
:1030D000DB0050333B44383B1B68002B1DD081493B
:1030E000BA6C13465B001344DB0050333B44383B5F
:1030F0001B68013B9B000B4459687A48BA6C134625
:103100005B001344DB0050333B44383B1B68013BFE
:1031100021F010029B0003445A60BA6C13465B0016
:103120001344DB0050333B44303B1B68002B21D061
:103130006C49BA6C13465B001344DB0050333B44CC
:10314000303B1B68013B03F001039B000B445968B3
:103150006448BA6C13465B001344DB0050333B44B5
:10316000303B1B68013B03F0010321F480329B00DC
:1031700003445A60BA6C13465B001344DB005033BF
:103180003B442C3B1B68002B21D05649BA6C13469C
:103190005B001344DB0050333B442C3B1B68013B7A
:1031A00003F001039B000B4459684E48BA6C134668
:1031B0005B001344DB0050333B442C3B1B68013B5A
:1031C00003F0010321F080729B0003445A60BB6846
:1031D000196897F8452013465B001344DB00503311
:1031E0003B443C3B1B6899423CD0BB68996897F8CC
:1031F000452013465B001344DB0050333B44343B13
:103200001B6899422ED0BB68596897F84520134631
:103210005B001344DB0050333B44383B1B6899424E
:1032200003D1BB685B68002B1CD1BB68D96897F8D9
:10323000452013465B001344DB0050333B44303BD6
:103240001B6899420ED0BB68196997F84520134650
:103250005B001344DB0050333B442C3B1B6899421A
:1032600040F00E81BB68196897F8452013465B0053
:103270001344DB0050333B443C3B1B68994233D141
:10328000BB68596897F8452013465B001344DB0080
:1032900050333B44383B1B68994225D1BB68D96801
:1032A00097F8452013465B001344DB0050333B4442
:1032B000303B1B68994217D1BB68196997F84520C4
:1032C00013465B001344DB0050333B442C3B1B682C
:1032D000994209D1034B1B68024A43F00103136072
:1032E000CEE000BF00B40052BB4997F8452013461A
:1032F0005B001344DB0050333B443C3B1B68013B09
:103300009B000B445968B44897F8452013465B006E
:103310001344DB0050333B443C3B1B68013B21F032
:1033200001029B0003445A6097F8452013465B0056
:103330001344DB0050333B44383B1B68002B1FD049
:10334000A54997F8452013465B001344DB00503332
:103350003B44383B1B68013B9B000B4459689E482B
:1033600097F8452013465B001344DB0050333B4481
:10337000383B1B68013B21F010029B0003445A605C
:10338000954997F8452013465B001344DB00503302
:103390003B44343B1B68013B9B000B4459688E48FF
:1033A00097F8452013465B001344DB0050333B4441
:1033B000343B1B68013B21F480729B0003445A603C
:1033C00097F8452013465B001344DB0050333B4421
:1033D000303B1B68002B23D07F4997F845201346CC
:1033E0005B001344DB0050333B44303B1B68013B24
:1033F00003F001039B000B445968774897F8452078
:1034000013465B001344DB0050333B44303B1B68E6
:10341000013B03F0010321F480329B0003445A6016
:1034200097F8452013465B001344DB0050333B44C0
:103430002C3B1B68002B23D0674997F84520134687
:103440005B001344DB0050333B442C3B1B68013BC7
:1034500003F001039B000B4459685F4897F845202F
:1034600013465B001344DB0050333B442C3B1B688A
:10347000013B03F0010321F080729B0003445A607A
:10348000554ABB689B68013B9B0013445B6823F46F
:103490004072BB6C5B021A434F49BB689B68013B9F
:1034A00042F480729B000B445A60BB685B695A1EF1
:1034B000494B1B681B0CDBB29A420AD9464B1B686E
:1034C00023F47F02BB685B69013B1B044249134341
:1034D0000B60414B1B6803F00103002B00F09A8046
:1034E0003D4ABB681B68013B9B0013445B6823F0AB
:1034F00003023949BB681B68013B42F001029B0093
:103500000B445A60BB685B68002B11D0324ABB6821
:103510005B68013B9B0013445B6823F030022E493B
:10352000BB685B68013B42F010029B000B445A6091
:10353000BB68DB6803F48033002B16D0264ABB68D7
:10354000DB68013B03F001039B0013445B6823F439
:10355000E0222149BB68DB68013B03F0010342F430
:1035600080329B000B445A6019E0BB68DB68002B7B
:1035700015D0194ABB68DB68013B03F001039B00CF
:1035800013445B6823F0E0621349BB68DB68013BCE
:1035900003F0010342F080729B000B445A60BB6849
:1035A0001B6903F48033002B18D00B4ABB681B69DE
:1035B000013B03F001039B0013445B6823F4E0220A
:1035C0000549BB681B69013B03F0010342F440322B
:1035D0009B000B445A60C5E000B40052BB681B69F5
:1035E000002B00F0BF806E4ABB681B69013B03F0F3
:1035F00001039B0013445B6823F0E0626849BB68E9
:103600001B69013B03F0010342F040729B000B4435
:103610005A60A7E0624ABB681B68013B9B001344E9
:103620005B6823F00302BB6C5B001A435C49BB6818
:103630001B68013B42F001029B000B445A60BB68CF
:103640005B68002B14D0564ABB685B68013B9B004B
:1036500013445B6823F03002BB6C5B011A43504992
:10366000BB685B68013B42F010029B000B445A6050
:10367000BB68DB6803F48033002B19D0484ABB6871
:10368000DB68013B03F001039B0013445B6823F4F8
:10369000E022BB6C9B041A434149BB68DB68013BD9
:1036A00003F0010342F480329B000B445A601CE09B
:1036B000BB68DB68002B18D0394ABB68DB68013B6C
:1036C00003F001039B0013445B6823F0E062BB6CD2
:1036D0009B061A433249BB68DB68013B03F00103D8
:1036E00042F080729B000B445A60BB681B6903F474
:1036F0008033002B19D02A4ABB681B69013B03F0B9
:1037000001039B0013445B6823F4E022BB6C9B0421
:103710001A432349BB681B69013B03F0010342F4D0
:1037200040329B000B445A601CE0BB681B69002BB5
:1037300018D01B4ABB681B69013B03F001039B00C7
:1037400013445B6823F0E062BB6C9B061A43144988
:10375000BB681B69013B03F0010342F040729B0010
:103760000B445A6097F8463003F00103002B05D054
:103770000C4B1B680B4A43F00103136097F846306B
:1037800003F00203002B05D0074B1B68064A43F0E9
:103790000103136097F84F3018465037BD4680BD7F
:1037A00000B400520050005200A0005280B584B016
:1037B00000AF78607B681B6CFB60FB6800229A643A
:1037C000FB681B6DB3F5807F22D1FB681B681B6A09
:1037D00003F02003002B14D0FB681B6802225A62FE
:1037E000FB681B681A68FB681B6842F400321A60A9
:1037F000FB681B681A68FB681B6842F002021A60CB
:103800000CE0FB6802221A65F868FFF78DFA05E004
:10381000FB6802221A65F868FFF77CFA00BF1037D0
:10382000BD4680BD80B584B000AFF860B9603B6034
:103830001346FB711AE0BB69B3F1FF3F16D0FEF7E8
:1038400013FD02463B68D31ABA699A4202D3BB6998
:10385000002B0BD1FB684FF400721A65FB685B6D9F
:1038600043F00102FB685A6501230EE0FB681B6808
:103870001A6ABB681340002B14BF01230023DBB27C
:103880001A46FB799A42D6D1002318461037BD4616
:1038900080BD000080B487B000AF03463960FB7183
:1038A0000023FB7500233B61FB79002B05D0FB79DE
:1038B000022B02D83B68002B02D10123FB7598E054
:1038C0003B6800221A603B6800225A603B68002275
:1038D0009A603B680022DA603B6800221A61FB793B
:1038E000022B0BD1464B1B6803F00103002B02D1C6
:1038F000444B3B6102E04FF400733B610023FB60EB
:1039000074E03F4AFB689B0013445B68BB60BB6884
:1039100003F00103002B0AD0BA683B69534003F05F
:103920000203002B03D1FB685A1C3B681A60BB687A
:1039300003F01003002B0AD0BA683B69534003F030
:103940002003002B03D1FB685A1C3B685A60BB68FC
:1039500003F48073002B0AD0BA683B69534003F428
:103960000073002B03D1FB685A1C3B689A60BB684C
:1039700003F48033002B18D0BA683B69534003F43A
:103980008023002B11D1BB6803F40033002B06D138
:10399000FB68013343F480323B68DA6005E0FB6882
:1039A000013343F080723B68DA60BB6803F08073D8
:1039B000002B18D0BA683B69534003F08063002B9A
:1039C00011D1BB6803F00073002B06D1FB680133F3
:1039D00043F480323B681A6105E0FB68013343F031
:1039E00080723B681A61FB680133FB60FB68012B46
:1039F00087D9FB7D18461C37BD465DF8047B7047B0
:103A000000B400522202040480B586B002AF786090
:103A10007B68002B01D10123FEE07B6893F895348D
:103A2000DBB2002B06D17B68002283F894247868EF
:103A3000FEF768FA7B68032283F895247B681B688D
:103A4000184607F020FF7B6818687B681A7C8DF8A1
:103A5000002004330ECB07F0F1FD0346002B05D008
:103A60007B68022283F895240123D5E07B681B68DC
:103A70000021184607F018FF0346002B05D07B688D
:103A8000022283F895240123C6E00023FB734AE059
:103A9000FA7B79681346DB0013449B000B44153313
:103AA00001221A70FA7B79681346DB0013449B00ED
:103AB0000B441433FA7B1A70FA7BFB7B98B279685B
:103AC0001346DB0013449B000B442E3302461A803E
:103AD000FA7B79681346DB0013449B000B441833D0
:103AE00000221A70FA7B79681346DB0013449B00AE
:103AF0000B441C3300221A60FA7B79681346DB0002
:103B000013449B000B44203300221A60FA7B79682F
:103B10001346DB0013449B000B44243300221A603D
:103B2000FB7B0133FB737B681B79FA7B9A42AFD333
:103B30000023FB7344E0FA7B79681346DB001344EF
:103B40009B000B4403F2552300221A70FA7B79681C
:103B50001346DB0013449B000B4403F51573FA7BFB
:103B60001A70FA7B79681346DB0013449B000B4400
:103B700003F5167300221A70FA7B79681346DB008E
:103B800013449B000B4403F5177300221A60FA7B61
:103B900079681346DB0013449B000B4403F518734C
:103BA00000221A60FA7B79681346DB0013449B00FD
:103BB0000B4403F5197300221A60FB7B0133FB737E
:103BC0007B681B79FA7B9A42B5D37B6818687B685F
:103BD0001A7C8DF8002004330ECB07F0B1FE0346AB
:103BE000002B05D07B68022283F89524012313E083
:103BF0007B6800225A747B68012283F895247B68D5
:103C00001B7B012B02D1786801F0EEF97B681B6801
:103C1000184608F0F4FE002318461037BD4680BD54
:103C200080B584B000AF78607B681B68FB607B6800
:103C300093F89434012B01D1022322E07B68012206
:103C400083F89424FB68DB6803F04003002B09D061
:103C50007B685B7B012B05D1FB689B6B43F4803257
:103C6000FB689A637B681B68184607F0FBFD7B685E
:103C70001B68184608F0A2FE7B68002283F8942493
:103C8000002318461037BD4680BD80B584B000AF14
:103C900078607B681B68FB607B6893F89434012B29
:103CA00001D1022328E07B68012283F894247B68F9
:103CB0001B68184607F0E7FD7B681B68184608F08C
:103CC0009EFE7B681B681021184607F097FFFB6873
:103CD000DB6803F04003002B09D07B685B7B012B82
:103CE00005D1FB689B6B23F48032FB689A637B6889
:103CF000002283F89424002318461037BD4680BD67
:103D000090B58DB000AF78607B681B683B623B6A02
:103D1000FB617B681B68184608F025FF0346002BF3
:103D200040F0B9847B681B68184608F089FE03469A
:103D3000002B00F0AF84FB6903F500639B681B0A4E
:103D4000C3F30D027B68C3F8D4247B681B68184654
:103D500008F076FE034603F00203022B07D17B68CE
:103D60001B685A697B681B6802F002025A617B6813
:103D70001B68184608F064FE034603F01003102B7E
:103D800061D17B681B689A697B681B6822F010020E
:103D90009A613B6A1B6ABB61BB6903F00F02134661
:103DA000DB0013449B0003F514737A681344043357
:103DB0007B61BB6903F4F013B3F5802F24D1BA699A
:103DC00047F6F0731340002B35D07B69D968BB6987
:103DD0001B099BB2C3F30A039BB21A46386A08F068
:103DE0009BFC7B69DA68BB691B09C3F30A031A44AD
:103DF0007B69DA607B695A69BB691B09C3F30A03F3
:103E00001A447B695A6116E0BB6903F4F013B3F5F9
:103E1000402F10D17B6803F29C4308221946386A70
:103E200008F07AFC7B695A69BB691B09C3F30A0372
:103E30001A447B695A617B681B689A697B681B68B6
:103E400042F010029A617B681B68184608F0F8FD82
:103E5000034603F40023B3F5002F40F0A7800023AE
:103E60007B627B681B68184608F0FDFDB86299E02C
:103E7000BB6A03F00103002B00F08E807B681B6897
:103E80007A6AD2B21146184608F021FE38613B69C1
:103E900003F00103002B0CD07B6A5A01FB69134429
:103EA00003F530631A4601239360796A786800F05D
:103EB00015FF3B6903F00803002B0CD07B6A5A0105
:103EC000FB69134403F530631A4608239360796A4B
:103ED000786800F0EBFF3B6903F01003002B08D07B
:103EE0007B6A5A01FB69134403F530631A461023B9
:103EF00093603B6903F00203002B30D03B6A5B699F
:103F000003F08003802B09D1FB6903F500635B6834
:103F1000FA6902F5006243F4806353607A6A1346DB
:103F2000DB0013449B0003F514737A6813440433D5
:103F30007B617B69DB78012B08D17B690022DA7019
:103F40007B6ADBB21946786800F0A8FB7B6A5A01ED
:103F5000FB69134403F530631A46022393603B69FF
:103F600003F02003002B08D07B6A5A01FB6913443D
:103F700003F530631A46202393603B6903F4005332
:103F8000002B09D07B6A5A01FB69134403F53063A7
:103F90001A464FF4005393607B6A01337B62BB6A1D
:103FA0005B08BB62BB6A002B7FF462AF7B681B6857
:103FB000184608F045FD034603F48023B3F5802F2F
:103FC00040F0DB807B681B68184608F066FDB8622D
:103FD00000237B62CDE0BB6A03F00103002B00F0FD
:103FE000C2807B681B687A6AD2B21146184608F014
:103FF0008CFD38613B6903F00103002B57D07B6ACD
:1040000003F00F03012202FA03F3FB60FB6903F5DF
:1040100000635A6BFB68DB43F96901F500611340EB
:104020004B637B6A5A01FB69134403F510631A461C
:10403000012393607B689B79012B32D179687A6A7E
:104040001346DB0013449B000B4420331968786847
:104050007A6A1346DB0013449B0003441C331B683D
:10406000194478687A6A1346DB0013449B000344C2
:10407000203319607B6A002B13D179687A6A134662
:10408000DB0013449B000B4424331B68002B08D136
:104090007B6818687B6803F29C431A46012108F08C
:1040A00095FD7B6ADBB21946786814F08BFE3B699C
:1040B00003F00803002B08D07B6A5A01FB69134404
:1040C00003F510631A46082393603B6903F010035D
:1040D000002B08D07B6A5A01FB69134403F5106377
:1040E0001A46102393603B6903F04003002B08D06D
:1040F0007B6A5A01FB69134403F510631A46402397
:1041000093603B6903F00203002B23D0796A386A7D
:1041100007F074FD7A6A1346DB0013449B001033EA
:104120007A68134404337B617B69DB78012B08D107
:104130007B690022DA707B6ADBB21946786800F08E
:10414000B9FA7B6A5A01FB69134403F510631A46F6
:10415000022393603B6903F08003002B03D0796A4C
:10416000786800F02FFD7B6A01337B62BB6A5B08D5
:10417000BB62BB6A002B7FF42EAF7B681B681846BE
:1041800008F05EFC034603F00043B3F1004F22D178
:10419000FB6903F500635B68FA6902F5006223F0CE
:1041A000010353607B6893F8CC34012B08D17B6802
:1041B000002283F8CC240021786800F039FF02E067
:1041C000786814F0AFFF7B681B685A697B681B68CE
:1041D00002F000425A617B681B68184608F030FC08
:1041E000034603F40063B3F5006F12D1FB6903F5D6
:1041F00000639B6803F00103012B02D1786814F07F
:104200007BFF7B681B685A697B681B6802F400624D
:104210005A617B681B68184608F012FC034603F0DD
:104220000063B3F1006F21D17B681B685A697B681A
:104230001B6802F000625A617B6893F8CC34002B53
:1042400011D17B68012283F8CC247B681B685B6DED
:104250009B0803F00F027B68C3F8D0240121786823
:1042600000F0E6FE02E0786814F046FF7B681B6809
:10427000184608F0E5FB034603F48053B3F5805F6E
:1042800040F0B780FB6903F500635B68FA6902F5EB
:10429000006223F0010353607B681B6810211846FD
:1042A00007F0ACFC0023FB6246E0FB6A5A01FB69A5
:1042B000134403F510631A464FF67F339360FB6A8D
:1042C0005A01FB69134403F510631B68FA6A510134
:1042D000FA690A4402F5106223F400131360FB6AC2
:1042E0005A01FB69134403F530631A464FF67F33D6
:1042F0009360FB6A5A01FB69134403F530631B6842
:10430000FA6A5101FA690A4402F5306223F4001393
:104310001360FB6A5A01FB69134403F530631B68A1
:10432000FA6A5101FA690A4402F5306243F0006307
:104330001360FB6A0133FB627B681B791A46FB6AD8
:104340009342B2D3FB6903F50063DB69FA6902F5B6
:10435000006243F00113D3617B68DB7B002B16D036
:10436000FB6903F50063D3F88430FA6902F5006253
:1043700043F00B03C2F88430FB6903F500635B6C08
:10438000FA6902F5006243F00B03536415E0FB6920
:1043900003F500635A69FB6903F50063194642F2AD
:1043A0002B0313434B61FB6903F500631B69FA6937
:1043B00002F5006243F00B031361FB6903F5006330
:1043C0001B68FA6902F5006223F4FE6313607B68E0
:1043D00018687B6899797B6803F29C431A4608F059
:1043E000F5FB7B681B685A697B681B6802F4805286
:1043F0005A617B681B68184608F022FB034603F4E9
:104400000053B3F5005F23D17B681B68184608F0A2
:10441000B9FB7B681B68184607F069FC03461A461F
:104420007B68DA717B681C6801F062FD01467B687D
:10443000DB791A46204607F073F9786814F0F8FD26
:104440007B681B685A697B681B6802F400525A61DA
:104450007B681B68184608F0F3FA034603F008036C
:10446000082B0AD1786814F073FE7B681B685A69C0
:104470007B681B6802F008025A617B681B6818465B
:1044800008F0DEFA034603F08003802B23D13B6A59
:104490009B6923F080023B6A9A6101237B6214E0EE
:1044A00079687A6A1346DB0013449B000B4403F2DD
:1044B00057231B78012B05D17B6ADBB2194678683C
:1044C00000F022FB7B6A01337B627B681B791A4612
:1044D0007B6A9342E4D37B681B68184608F0B0FA05
:1044E000034603F48013B3F5801F3CD101237B62A4
:1044F0002BE07B6A5A01FB69134403F510631B68C8
:10450000BB6179687A6A1346DB0013449B000B4455
:1045100018331B78012B15D1BB69002B12DA79688F
:104520007A6A1346DB0013449B000B4417330122C5
:104530001A707B6ADBB263F07F03DBB219467868DE
:1045400000F0E2FA7B6A01337B627B681B791A46D2
:104550007B6A9342CDD37B681B685A697B681B6872
:1045600002F480125A617B681B68184608F068FAEA
:10457000034603F40013B3F5001F56D101237B62F9
:1045800045E07B6A5A01FB69134403F530631B68FD
:10459000BB6179687A6A1346DB0013449B000B44C5
:1045A00003F516731B78012B2ED1BB69002B2BDA78
:1045B000BB691A0C7B68D3F8D434534003F0010371
:1045C000002B21D179687A6A1346DB0013449B00E3
:1045D0000B4403F2572301221A703B6A9B6943F094
:1045E00080023B6A9A613B6A5B6903F08003002B9F
:1045F0000AD1FB6903F500635B68FA6902F50062A2
:1046000043F40073536008E07B6A01337B627B688C
:104610001B791A467B6A9342B3D37B681B685A693D
:104620007B681B6802F400125A617B681B6818469D
:1046300008F006FA034603F08043B3F1804F0AD135
:10464000786814F025FD7B681B685A697B681B68D5
:1046500002F080425A617B681B68184608F0F0F946
:10466000034603F00403042B15D17B681B685B68C9
:10467000BB61BB6903F00403002B02D0786814F01F
:104680001DFD7B681B6859687B681B68BA690A4313
:104690005A6000E000BF3437BD4690BD80B483B09F
:1046A00000AF78600B46FB7000BF0C37BD465DF86D
:1046B000047B704780B483B000AF78600B46FB701A
:1046C00000BF0C37BD465DF8047B704780B582B0F3
:1046D00000AF78600B46FB707B6893F89434012B35
:1046E00001D1022312E07B68012283F894247B68C5
:1046F000FA785A747B681B68FA781146184608F0F5
:1047000037F97B68002283F8942400231846083781
:10471000BD4680BD80B584B000AF786008461146C4
:104720001A460346FB700B463B801346BB700023C2
:10473000FB7297F90330002B0FDAFB7803F00F02BE
:104740001346DB0013449B0010337A681344043390
:10475000FB60FB6801225A700FE0FB7803F00F0248
:104760001346DB0013449B0003F514737A6813446B
:104770000433FB60FB6800225A70FB7803F00F03E0
:10478000DAB2FB681A703B88C3F30A02FB689A60CE
:10479000FB68BA781A71FB685B78002B04D0FB6861
:1047A0001B781A46FB685A83BB78022B02D1FB6840
:1047B00000225A717B6893F89434012B01D10223B3
:1047C0000EE07B68012283F894247B681B68F968FB
:1047D000184607F0B1FA7B68002283F89424FB7A2C
:1047E00018461037BD4680BD80B584B000AF7860F4
:1047F0000B46FB7097F90330002B0FDAFB7803F0C0
:104800000F021346DB0013449B0010337A681344F5
:104810000433FB60FB6801225A700FE0FB7803F061
:104820000F021346DB0013449B0003F514737A68F0
:1048300013440433FB60FB6800225A70FB7803F0DA
:104840000F03DAB2FB681A707B6893F89434012B7B
:1048500001D102230EE07B68012283F894247B6857
:104860001B68F968184607F0EFFA7B68002283F8A6
:104870009424002318461037BD4680BD80B586B00D
:1048800000AFF8607A603B600B46FB72FB7A03F086
:104890000F021346DB0013449B0003F51473FA6800
:1048A000134404337B617B697A68DA607B693A6818
:1048B0001A617B6900225A617B6900225A70FB7A77
:1048C00003F00F03DAB27B691A70FB689B79012B46
:1048D00002D17A687B69DA61FB681868FB689B79AA
:1048E0001A46796907F08CFB002318461837BD4635
:1048F00080BD80B483B000AF78600B46FB70FB785E
:1049000003F00F0279681346DB0013449B000B444D
:1049100003F51A731B6818460C37BD465DF8047B17
:10492000704780B586B000AFF8607A603B600B4698
:10493000FB72FB7A03F00F021346DB0013449B006B
:104940001033FA68134404337B617B697A68DA6058
:104950007B693A681A617B6900225A617B6901228E
:104960005A70FB7A03F00F03DAB27B691A70FB68A6
:104970009B79012B02D17A687B69DA61FB68186840
:10498000FB689B791A46796907F03AFB00231846C1
:104990001837BD4680BD80B584B000AF78600B4647
:1049A000FB70FB7803F00F037A681279934201D908
:1049B00001234FE097F90330002B0FDAFB7803F067
:1049C0000F021346DB0013449B0010337A68134434
:1049D0000433FB60FB6801225A700DE0FA7813463D
:1049E000DB0013449B0003F514737A68134404330B
:1049F000FB60FB6800225A70FB6801229A70FB780A
:104A000003F00F03DAB2FB681A707B6893F89434F2
:104A1000012B01D102231DE07B68012283F894243D
:104A20007B681B68F968184607F0CEFEFB7803F038
:104A30000F03002B09D17B6818687B6899797B6824
:104A400003F29C431A4608F0C1F87B68002283F801
:104A50009424002318461037BD4680BD80B584B02D
:104A600000AF78600B46FB70FB7803F00F037A68A9
:104A70001279934201D9012342E097F90330002BC8
:104A80000FDAFB7803F00F021346DB0013449B00A0
:104A900010337A6813440433FB60FB6801225A70B8
:104AA0000FE0FB7803F00F021346DB0013449B007A
:104AB00003F514737A6813440433FB60FB68002227
:104AC0005A70FB6800229A70FB7803F00F03DAB289
:104AD000FB681A707B6893F89434012B01D1022390
:104AE0000EE07B68012283F894247B681B68F968D8
:104AF000184607F0D7FE7B68002283F89424002331
:104B000018461037BD4680BD80B584B000AF7860D0
:104B10000B46FB7097F90330002B0CDAFB7803F09F
:104B20000F021346DB0013449B0010337A681344D2
:104B30000433FB600CE0FB7803F00F021346DB004C
:104B400013449B0003F514737A6813440433FB6029
:104B50007B681B68F968184607F0F6FC0346FB7291
:104B6000FB7A18461037BD4680BD80B582B000AFD5
:104B700078600B46FB707B6893F89434012B01D16D
:104B800002231BE07B68012283F8942497F9033009
:104B9000002B09DA7B681A68FB7803F00F031946CB
:104BA000104607F02BF804E07B681B68184607F0F6
:104BB00057F87B68002283F89424002318460837AE
:104BC000BD4680BD80B58AB002AF786039607B6831
:104BD0001B687B617B693B613A681346DB001344C9
:104BE0009B0010337A6813440433FB60FB685A69F6
:104BF000FB681B699A4201D901236BE0FB681A69C3
:104C0000FB685B69D31AFB61FB689B68FA699A428F
:104C100002D9FB689B68FB61FB6903339B08BB619E
:104C20002AE0FB681A69FB685B69D31AFB61FB68C1
:104C30009B68FA699A4202D9FB689B68FB61FB6931
:104C400003339B08BB61FB68D9683B68DAB2FB6938
:104C500098B27B689B7900930346786907F01EFD44
:104C6000FB68DA68FB691A44FB68DA60FB685A691A
:104C7000FB691A44FB685A613B685A013B6913445B
:104C800003F510639B699BB2BA699A4209D8FB6825
:104C90005A69FB681B699A4203D2FB681B69002BA7
:104CA000BFD1FB681A69FB685B699A4211D83B68FF
:104CB00003F00F03012202FA03F3BB603B6903F523
:104CC00000635A6BBB68DB43396901F5006113402F
:104CD0004B63002318462037BD4680BD80B588B0A1
:104CE00000AF786039607B681B68FB61FB69BB6162
:104CF000FB693C3304331B687B613B685A01BB6929
:104D0000134403F530639B683B617B689B79012BFF
:104D10007BD13B6903F00803002B15D07B69614A06
:104D2000934240F2B9803B6903F40043002B00F04A
:104D3000B3803B685A01BB69134403F530631A46DC
:104D40004FF400439360A7E03B6903F02003002B7E
:104D500009D03B685A01BB69134403F530631A4616
:104D60002023936098E03B6903F02803002B40F078
:104D700093807B694B4A93420FD93B6903F400430C
:104D8000002B0AD03B685A01BB69134403F530631A
:104D90001A464FF4004393607EE03A681346DB0006
:104DA00013449B0003F514737A6813440433FB60C7
:104DB000FB681A6A3B685901BB690B4403F5306311
:104DC0001B69C3F31203D21AFB685A613B68002BBC
:104DD00014D1FB681B69002B09D17B6818687B68BC
:104DE00003F29C431A46012107F0F0FE06E0FB683F
:104DF000DA68FB685B691A44FB68DA603B68DBB21F
:104E00001946786814F094F846E07B69264A934284
:104E100024D13B6903F40043002B0AD03B685A01BC
:104E2000BB69134403F530631A464FF400439360A3
:104E300032E03B6903F02003002B08D03B685A01A5
:104E4000BB69134403F530631A46202393603B6823
:104E5000DBB21946786814F06BF81DE03B68002B54
:104E600014D179683A681346DB0013449B000B4465
:104E700003F519731B68002B08D17B6818687B68E1
:104E800003F29C431A46002107F0A0FE3B68DBB208
:104E90001946786814F04CF8002318462037BD46B0
:104EA00080BD00BF0A30544F0A31544F80B586B0E0
:104EB00000AF786039607B681B687B617B693B6110
:104EC0007B693C3304331B68FB603B685A013B69D8
:104ED000134403F530639B68BB60FB68154A93423B
:104EE0000ED9BB6803F40043002B09D03B685A017C
:104EF0003B69134403F530631A464FF40043936053
:104F0000786813F0E5FEFB680A4A93420CD97B6887
:104F10009B79012B08D17B6818687B6803F29C435E
:104F20001A46012107F052FE002318461837BD46E5
:104F300080BD00BF0A30544F80B485B000AF7860A8
:104F40000B46FB7013463B807B681B685B6ABB604B
:104F5000FB78002B07D13B8819047B681B68BA6873
:104F60000A439A6228E07B681B689B6A1B0CBA683C
:104F70001344BB600023FB730DE07B681A68FB7B66
:104F800040339B0013445B681B0CBA681344BB603E
:104F9000FB7B0133FB73FA7BFB78013B9A42ECD33A
:104FA0003B8818047B681968FB78013BBA680243A8
:104FB00040339B000B445A60002318461437BD460B
:104FC0005DF8047B704780B483B000AF78600B4617
:104FD0007B807B681B687A885A62002318460C37EE
:104FE000BD465DF8047B704780B485B000AF786043
:104FF0007B681B68FB607B680122C3F8D8247B6850
:10500000002283F8CC24FB689B6943F00062FB68B4
:105010009A61FB685A6D054B1343FA685365002388
:1050200018461437BD465DF8047B70470300001036
:1050300080B483B000AF78600B46FB7000BF0C37C4
:10504000BD465DF8047B704780B584B000AF7860E2
:10505000194BDB6803F00403042B0AD0164BDB6802
:1050600003F007037A689A4201D001231FE000236E
:105070001DE0114BDB6823F007020F497B681343E7
:10508000CB60FDF7F1F8F86009E0FDF7EDF80246B6
:10509000FB68D31AB3F57A7F01D9012307E0064BE9
:1050A0005B6803F40053B3F5005FEED100231846AC
:1050B0001037BD4680BD00BF0048025880B400AF25
:1050C000054BDB68044A43F08073D36000BFBD46E4
:1050D0005DF8047B704700BF0048025880B58CB073
:1050E00000AF78607B68002B01D10123C8E37B68A7
:1050F0001B6803F00103002B00F08780884B1B69BD
:1051000003F03803FB62864B9B6ABB62FB6A102B81
:1051100007D0FB6A182B10D1BB6A03F00303022BE4
:105120000BD17F4B1B6803F40033002B6CD07B68E2
:105130005B68002B68D10123A2E37B685B68B3F551
:10514000803F06D1764B1B68754A43F48033136069
:105150002EE07B685B68002B0CD1714B1B68704A9A
:1051600023F4803313606E4B1B686D4A23F4802355
:1051700013601DE07B685B68B3F5A02F0CD1684B12
:105180001B68674A43F480231360654B1B68644ABD
:1051900043F4803313600BE0614B1B68604A23F4D7
:1051A000803313605E4B1B685D4A23F480231360D9
:1051B0007B685B68002B13D0FDF756F8786208E037
:1051C000FDF752F802467B6AD31A642B01D90323F8
:1051D00056E3534B1B6803F40033002BF0D014E06C
:1051E000FDF742F8786208E0FDF73EF802467B6A78
:1051F000D31A642B01D9032342E3494B1B6803F400
:105200000033002BF0D100E000BF7B681B6803F087
:105210000203002B00F08C80414B1B6903F0380324
:105220003B623F4B9B6AFB613B6A002B07D03B6AAA
:10523000182B37D1FB6903F00303002B32D1384B15
:105240001B6803F00403002B05D07B68DB68002B90
:1052500001D1012314E3324B1B6823F019027B6850
:10526000DB682F4913430B60FCF7FEFF786208E010
:10527000FCF7FAFF02467B6AD31A022B01D90323FB
:10528000FEE2274B1B6803F00403002BF0D0244BF5
:105290005B6823F0FE427B681B691B0620491343B1
:1052A0004B6045E07B68DB68002B26D01C4B1B68FD
:1052B00023F019027B68DB68194913430B60FCF784
:1052C000D3FF786208E0FCF7CFFF02467B6AD31A6F
:1052D000022B01D90323D3E2114B1B6803F0040313
:1052E000002BF0D00E4B5B6823F0FE427B681B69FD
:1052F0001B060B4913434B601AE0094B1B68084A15
:1053000023F001031360FCF7AFFF78620AE0FCF7BB
:10531000ABFF02467B6AD31A022B03D90323AFE209
:1053200000440258964B1B6803F00403002BEED197
:105330007B681B6803F01003002B6AD0904B1B693D
:1053400003F03803BB618E4B9B6A7B61BB69082B02
:1053500007D0BB69182B1BD17B6903F00303012B1A
:1053600016D1874B1B6803F48073002B05D07B6834
:10537000DB69802B01D0012382E2814BDB6823F0C3
:105380007C527B681B6A1B067D491343CB6040E05F
:105390007B68DB69002B23D0794B1B68784A43F08C
:1053A00080031360FCF760FF786208E0FCF75CFFA5
:1053B00002467B6AD31A022B01D9032360E2704BA9
:1053C0001B6803F48073002BF0D06D4BDB6823F077
:1053D0007C527B681B6A1B0669491343CB6018E04B
:1053E000674B1B68664A23F080031360FCF73CFFA1
:1053F000786208E0FCF738FF02467B6AD31A022B7A
:1054000001D903233CE25E4B1B6803F48073002B3D
:10541000F0D17B681B6803F00803002B36D07B6853
:105420005B69002B19D0564B5B6F554A43F0010363
:105430005367FCF719FF786208E0FCF715FF024696
:105440007B6AD31A022B01D9032319E24C4B5B6F01
:1054500003F00203002BF0D018E0494B5B6F484A81
:1054600023F001035367FCF7FFFE786208E0FCF7C6
:10547000FBFE02467B6AD31A022B01D90323FFE10C
:105480003F4B5B6F03F00203002BF0D17B681B687E
:1054900003F02003002B36D07B689B69002B19D0CA
:1054A000374B1B68364A43F480531360FCF7DCFE2D
:1054B000786208E0FCF7D8FE02467B6AD31A022B1A
:1054C00001D90323DCE12E4B1B6803F40053002BAE
:1054D000F0D018E02A4B1B68294A23F4805313604C
:1054E000FCF7C2FE786208E0FCF7BEFE02467B6A6B
:1054F000D31A022B01D90323C2E1214B1B6803F409
:105500000053002BF0D17B681B6803F00403002BD1
:1055100000F086801B4B1B681A4A43F480731360AB
:10552000FCF7A2FE786208E0FCF79EFE02467B6A6A
:10553000D31A642B01D90323A2E1124B1B6803F495
:105540008073002BF0D07B689B68012B06D10C4B3D
:105550001B6F0B4A43F00103136732E07B689B68C3
:10556000002B11D1064B1B6F054A23F00103136773
:10557000034B1B6F024A23F00403136721E000BFB3
:1055800000440258004802587B689B68052B0CD1E8
:10559000834B1B6F824A43F004031367804B1B6FDE
:1055A0007F4A43F0010313670BE07D4B1B6F7C4A7E
:1055B00023F0010313677A4B1B6F794A23F004032E
:1055C00013677B689B68002B15D0FCF74DFE786253
:1055D0000AE0FCF749FE02467B6AD31A41F28832A0
:1055E000934201D903234BE16D4B1B6F03F0020380
:1055F000002BEED014E0FCF737FE78620AE0FCF7EF
:1056000033FE02467B6AD31A41F28832934201D9B3
:10561000032335E1624B1B6F03F00203002BEED135
:105620007B685B6A002B00F02A815D4B1B6903F0ED
:105630003803182B00F0BA807B685B6A022B40F0BD
:105640009580574B1B68564A23F080731360FCF714
:105650000BFE786208E0FCF707FE02467B6AD31A6D
:10566000022B01D903230BE14D4B1B6803F00073A0
:10567000002BF0D14A4B9A6A4A4B13407A68916AE0
:105680007A68D26A12010A43454913438B627B68E8
:105690001B6B013BC3F308027B685B6B013B5B0246
:1056A0009BB21A437B689B6B013B1B0403F4FE0314
:1056B0001A437B68DB6B013B1B0603F0FE43384952
:1056C00013430B63364BDB6A354A23F00103D36285
:1056D000334B5A6B344B13407A68926CD20030498A
:1056E00013434B632E4BDB6A23F00C027B681B6C6D
:1056F0002B491343CB622A4BDB6A23F002027B68FF
:105700005B6C27491343CB62254BDB6A244A43F485
:105710008033D362224BDB6A214A43F40033D362E5
:105720001F4BDB6A1E4A43F48023D3621C4BDB6AA7
:105730001B4A43F00103D362194B1B68184A43F01C
:1057400080731360FCF790FD786208E0FCF78CFD35
:1057500002467B6AD31A022B01D9032390E0104B37
:105760001B6803F00073002BF0D088E00C4B1B6823
:105770000B4A23F080731360FCF776FD786208E033
:10578000FCF772FD02467B6AD31A022B01D9032370
:1057900076E0034B1B6803F00073002BF0D16EE042
:1057A000004402580CFCFFFF0700FFFF364B9B6ACA
:1057B0003B61354B1B6BFB607B685B6A012B31D017
:1057C0003B6903F003027B689B6A9A422AD13B69DA
:1057D0001B0903F03F027B68DB6A9A4222D1FB6817
:1057E000C3F308027B681B6B013B9A421AD1FB682A
:1057F0005B0A03F07F027B685B6B013B9A4211D12D
:10580000FB681B0C03F07F027B689B6B013B9A4299
:1058100008D1FB681B0E03F07F027B68DB6B013B4A
:105820009A4201D001232BE0174B5B6BDB08C3F3DB
:105830000C033B617B689B6C3A699A421FD0124B08
:10584000DB6A114A23F00103D362FCF70DFD786295
:1058500000BFFCF709FD02467B6A9342F9D00A4B70
:105860005A6B0A4B13407A68926CD2000649134374
:105870004B63054BDB6A044A43F00103D362002308
:1058800018463037BD4680BD004402580700FFFF70
:1058900080B586B000AF786039607B68002B01D19D
:1058A00001239CE18A4B1B6803F00F033A689A427C
:1058B00010D9874B1B6823F00F0285493B681343BF
:1058C0000B60834B1B6803F00F033A689A4201D0C8
:1058D000012384E17B681B6803F00403002B10D0D4
:1058E0007B681A697B4B9B6903F070039A4208D965
:1058F000784B9B6923F070027B681B6975491343E1
:105900008B617B681B6803F00803002B10D07B6859
:105910005A69704BDB6903F070039A4208D96D4BEA
:10592000DB6923F070027B685B696A491343CB61D2
:105930007B681B6803F01003002B10D07B689A690A
:10594000644BDB6903F4E0639A4208D9614BDB697D
:1059500023F4E0627B689B695E491343CB617B68FB
:105960001B6803F02003002B10D07B68DA69594BC9
:105970001B6A03F070039A4208D9564B1B6A23F046
:1059800070027B68DB69534913430B627B681B68B9
:1059900003F00203002B10D07B68DA684D4B9B6943
:1059A00003F00F039A4208D94A4B9B6923F00F0278
:1059B0007B68DB68474913438B617B681B6803F096
:1059C0000103002B55D0434B9B6923F470627B6825
:1059D0009B68404913438B617B685B68022B07D14E
:1059E0003C4B1B6803F40033002B21D10123F6E06C
:1059F0007B685B68032B07D1364B1B6803F0007391
:105A0000002B15D10123EAE07B685B68012B07D1ED
:105A1000304B1B6803F48073002B09D10123DEE0B7
:105A20002C4B1B6803F00403002B01D10123D6E0AB
:105A3000284B1B6923F007027B685B6825491343E9
:105A40000B61FCF711FC78610AE0FCF70DFC0246E3
:105A50007B69D31A41F28832934201D90323BEE015
:105A60001C4B1B6903F038027B685B68DB009A42C1
:105A7000EBD17B681B6803F00203002B10D07B681E
:105A8000DA68144B9B6903F00F039A4208D2114B5A
:105A90009B6923F00F027B68DB680E4913438B611F
:105AA0000B4B1B6803F00F033A689A4214D2084B61
:105AB0001B6823F00F0206493B6813430B60044B3D
:105AC0001B6803F00F033A689A4205D0012386E071
:105AD00000200052004402587B681B6803F0040356
