:020000040800F2
:1000000000000524B11700085D1300085F13000805
:100010006113000863130008651300080000000066
:1000200000000000000000000000000005180008AB
:100030006713000800000000BD0300086903000802
:10004000051800080518000805180008051800081C
:10005000051800080518000805180008051800080C
:1000600005180008051800080518000805180008FC
:1000700005180008051800080518000805180008EC
:1000800005180008051800080518000805180008DC
:1000900005180008051800080518000805180008CC
:1000A00005180008051800080518000805180008BC
:1000B000051800080518000869130008051800084D
:1000C000051800080518000805180008051800089C
:1000D000051800080518000805180008051800088C
:1000E00005180008051800080000000005180008A1
:1000F000051800080518000805180008051800086C
:10010000051800080518000805180008051800085B
:10011000051800080518000805180008051800084B
:10012000051800080518000805180008051800083B
:10013000051800080518000805180008051800082B
:1001400000000000000000000000000000000000AF
:10015000051800080518000805180008051800080B
:1001600005180008051800080518000805180008FB
:1001700005180008751300080518000800000000A5
:1001800005180008051800080518000805180008DB
:1001900005180008051800080518000805180008CB
:1001A00005180008051800080518000800000000E0
:1001B0008113000805180008051800080518000834
:1001C00005180008051800080000000000000000E5
:1001D00000000000000000000518000800000000FA
:1001E000000000000000000000000000000000000F
:1001F00000000000000000000518000805180008B5
:10020000051800080518000800000000051800087F
:10021000051800080518000805180008051800084A
:100220000518000800000000051800080000000084
:100230008D130008051800080000000005180008CC
:10024000051800080518000805180008051800081A
:10025000051800080518000805180008051800080A
:1002600005180008051800080518000805180008FA
:10027000051800080518000805180008000000000F
:1002800005180008051800080518000805180008DA
:100290000000000005180008051800080000000014
:1002A00000000000051800080518000805180008DF
:1002B00005180008051800080518000805180008AA
:0C02C000051800080518000805180008C3
:1002D00010B5054C237833B9044B13B10448AFF380
:1002E00000800123237010BD0001002400000000E5
:1002F000FCDB000808B5034B1BB103490348AFF30F
:10030000008008BD0000000004010024FCDB0008A0
:1003100072B64FF0E0201949C0F8081D1848174977
:10032000096801601748016841F0010101604FF060
:10033000E020154941614FF0070101614FF00001D4
:10034000C0F8181D4FF07F41C0F81C1D0F49C0F8C0
:10035000201D7047FFF7FEBFFFF7FEBFFFF7FEBF90
:1003600001B5BDE80140704701B500F091F8BDE866
:1003700001407047FFF7FEBFFFF7FEBF0000000817
:10038000502D0124001000E06F6408000000FF40C1
:100390004FF000002A4A1060EFF3148020F00400B0
:1003A00080F3148862B64FF080504FF0E021C1F81E
:1003B000040DBFF34F8FBFF36F8FFEE72148224A32
:1003C0004FF00003016891B10360EFF3098C2CE951
:1003D000F00F1EF0100F01D12CED108A1B4C4CF8C1
:1003E00004ED2568C1F808C00DB18D61236072B6B7
:1003F0001168B1B1016062B64F68144C8D6907F1A4
:1004000001074F602560D1F808C05CF804EB1EF0CE
:10041000100F01D1BCEC108ABCE8F00F8CF30988F6
:10042000704772B61168016009B962B6F9E74FF01A
:1004300000674FF0E028C8F8047D62B6DCE770473B
:10044000B42C01244C2D0124482D0124542D0124C9
:10045000026922F00702A2F144026FF00203136066
:100460004FF0000353609360D36013615361936155
:10047000D361136253629362D362136353634FF089
:10048000FF339363D1634FF08073136482607047CE
:100490002249086800F101000860214B1A683AB14E
:1004A000A2F101021A601AB91E4B4FF00100186048
:1004B0001D490868026822B11C4B4FF001021A6006
:1004C00008E000F104001A4B1A68904201D1194B60
:1004D00018680860134B1A6812B914490868D0B13B
:1004E0002DE901401149086808B10AF069F80D4B7F
:1004F0001A6872B109F0D6FF0F48016849B90F4870
:1005000001680F4A13680F484FF08052994200D09B
:100510000260BDE80140BFF34F8F7047B43601243D
:10052000542D0124B0360124243601242036012420
:10053000283601242C360124B42C01244C2D01240E
:10054000482D012404ED00E0034613F8012B002A96
:10055000FBD1181A0138704753B94AB9002908BFAE
:1005600000281CBF4FF0FF314FF0FF3000F088B97A
:10057000ADF1080C6DE904CE00F006F8DDF804E0FA
:10058000DDE9022304B070472DE9F047089D8E464F
:1005900004468846002B4AD18A42174662D9B2FAED
:1005A00082F64EB1C6F1200301FA06F820FA03F3F1
:1005B000B74043EA0808B4404FEA174E1FFA87FCD9
:1005C000B8FBFEF1230C0EFB118843EA084301FB44
:1005D0000CF29A4209D9FB1801F1FF3080F0EA8051
:1005E0009A4240F2E78002393B449A1AA3B2B2FB26
:1005F000FEF00EFB102243EA024300FB0CFC9C457C
:1006000009D9FB1800F1FF3280F0D6809C4540F2FA
:10061000D3803B44023840EA0140A3EB0C030021A5
:100620001DB1F3400022C5E90032BDE8F0878B42DE
:1006300005D90DB1C5E9000100210846F5E7B3FA77
:1006400083F1002946D1734502D3824200F205812D
:10065000841A6EEB030201209046002DE5D0C5E917
:100660000048E2E7002A00F09080B2FA82F6002EFD
:1006700040F0A4808A1A030C4FEA174E80B2BCB235
:100680000121B2FBFEFC0EFB1C2243EA024304FBE9
:100690000CF29A4207D9FB180CF1FF3802D29A42A9
:1006A00000F2E080C4469B1AB3FBFEF20EFB12334D
:1006B00040EA034302FB04F49C4207D9FB1802F111
:1006C000FF3002D29C4200F2CA8002461B1B42EA63
:1006D0000C40A5E7C1F120068B4022FA06F71F4324
:1006E0000EFA01F420FA06F32EFA06FE4FEA174935
:1006F000234300FA01F81FFA87FCBEFBF9F01C0C3B
:1007000009FB10EE44EA0E4400FB0CFEA64502FA7B
:1007100001F209D93C1900F1FF3A80F09C80A6450E
:1007200040F2998002383C44A4EB0E041FFA83FE89
:10073000B4FBF9F309FB13444EEA044403FB0CFC3D
:10074000A44508D93C1903F1FF3E80F08280A445FE
:100750007FD9023B3C4443EA0040A4EB0C04A0FBDD
:1007600002EC64457346E14662D35FD05DB1B8EBFD
:10077000030264EB090404FA06F622FA01F31E43AD
:10078000CC40C5E9006400214FE7B1FBF2FC010C4D
:1007900041EA0E4180B240EA01423B4638463C46BF
:1007A000B846BE462026B1FBF7F1A2EB080241EAAB
:1007B0000C4166E7014618E710462CE7C6F1200217
:1007C0002EFA02F3B740B14020FA02F24FEA174E78
:1007D0000A43B3FBFEF8BCB20EFB1833110C41EA1E
:1007E000034108FB04F9B04089454FEA104380B249
:1007F0003ED9791808F1FF3C01D289451FD8A1EBF9
:100800000901B1FBFEF909FB04F80EFB191192B2C4
:1008100042EA0142424529D2BA1809F1FF31C4D255
:100820004245C2D2A9F102013A44BEE7F0459DD249
:10083000BEEB02036CEB070C0138E14696E7A7EB31
:1008400009094944A8F1020CB1FBFEF909FB04F8BF
:10085000DBE773467FE7504666E70846FDE63B4424
:10086000023A33E7ACF1020C3B441CE749469CE7F3
:10087000A1EB0901C446B1FBFEF909FB04F8C4E78A
:10088000704700BF704700002DE9F84F05460E463F
:100890001446D0F8C0729BB30025DFF8B080DFF8B3
:1008A000B0A0DFF8B0B0A54206EB050207EB452982
:1008B00001D1002006E001232449184606F070FA11
:1008C00010B19020BDE8F88F42F2107150460AF046
:1008D00001FA02460028F4D1BFF34F8F08EB020360
:1008E0002032B2F5007FCBF85C32F7D1BFF34F8FE7
:1008F000BFF36F8F49464046013508F070FAD2E7E2
:10090000134601200A46394606F04AFA0028D8D193
:1009100042F210710E480AF0DDF90028D1D16402CC
:10092000D5F8C012002CC4DD01F01F032344BFF32F
:100930004F8F08480B44C0F85C1220315A1A002A25
:10094000F9DCBFF34F8FBFF36F8FB2E720010024B4
:10095000F02B012400ED00E02DE9F84F0F4615467D
:10096000D0F8C042ABB30026DFF8B080DFF8B0A00B
:10097000DFF8B0B0AE4204EB462007EB060901D128
:1009800000201BE04FF40072244908F028FABFF35E
:100990004F8F002308EB03022033B3F5007FCAF822
:1009A0006822F7D1BFF34F8FBFF36F8F01234A4601
:1009B0004146184606F0FEF910B19020BDE8F88FC8
:1009C00042F2107158460AF085F90028F5D1013637
:1009D000D0E75202002A10DD04F01F031344BFF3D6
:1009E0004F8F0F492344C1F8684220341A1B002A54
:1009F000F9DCBFF34F8FBFF36F8FD0F8C0122B46D7
:100A00003A46012006F0D6F90028D6D142F21071FC
:100A100004480AF05FF90028B2D0CEE72001002494
:100A200000ED00E00C2C012438B509F089FD42F2FC
:100A30000F75044609F084FD031B0120AB4203D867
:100A400006F0A4F90028F5D138BD000037B50446FA
:100A5000FFF7EAFF08B190234DE0D4F8C052D4F874
:100A6000B83205F01F05082BF5D801A252F823F083
:100A7000D50A0008FD0A0008F50A0008F50A000872
:100A8000950A00081B0B0008570A00086B0B0008AA
:100A9000BD0A000800221C233849C4F8BC2238488B
:100AA0000AF0A8F802460028D5D11C23354936485B
:100AB0000AF0A0F80028CED103B030BD00233048A2
:100AC000C4F8BC320AF0E8F82F4803B0BDE8304063
:100AD0000AF0E2B89023D4F8C402D4F8A012C4F803
:100AE000BC322B460144D4F8C8222046FFF7CCFE86
:100AF0000028E1D10023C4F8BC32DDE7D4F8C402F9
:100B00009023D4F8A012C4F8BC322B460144D4F888
:100B1000C8222046FFF720FFEAE700212B46D4F841
:100B2000C8222046FFF7B0FE014610B1C4F8BC024F
:100B3000C2E7009001AB6A46D4F8C00206F07AFD25
:100B4000002888D1009B002BD4D0FFF76DFF002830
:100B500081D12B46D4F8C82200992046FFF794FE95
:100B60000028C7D0C4F8BC02A6E72B46D4F8C82298
:100B700000212046FFF7F0FEF4E700BF14DC000878
:100B8000F02B01242DDC00080C2C0124342307B5A4
:100B9000174A00934FF480631649174809F092FEF4
:100BA00020B9154800F038F800B1FEE73423134AA5
:100BB000134900934FF42053124809F083FE20B9E3
:100BC000104806F0B5F800B1FEE734230E4A0F498D
:100BD00000934FF4A0430E4809F074FE20B90C486E
:100BE0000CF09AFC00B1FEE703B05DF804FB00BF17
:100BF000BC7B002446DC0008887B0024885300244A
:100C000059DC000854530024540300246CDC000811
:100C1000200300247047000000B58BB000234FF480
:100C2000007209A909F014FE0346B8B90122B021E7
:100C300004900B48CDE905210A220A49CDE9022298
:100C40004FF400720192099A0092074A0AF06EF876
:100C5000002818BF0E200BB05DF804FB0220FAE755
:100C6000BC7F00247FDC0008150C000808F054BC91
:100C70002B4B88B0D3F8E02042F01002C3F8E020FC
:100C8000D3F8E02002F010020192019AD3F8E0209C
:100C900042F02002C3F8E020D3F8E02002F0200266
:100CA0000292029AD3F8E02042F08002C3F8E020DA
:100CB000D3F8E02002F080020392039AD3F8E020F8
:100CC00042F00402C3F8E020D3F8E02002F004026E
:100CD0000492049AD3F8E02042F00102C3F8E02025
:100CE000D3F8E02002F001020592059AD3F8E02043
:100CF00042F00202C3F8E020D3F8E02002F0020242
:100D00000692069AD3F8E02042F00802C3F8E020E9
:100D1000D3F8E03003F008030793079B08B070474F
:100D20000044025800B59DB04C22002109A80CF0E7
:100D30002BFF2022002101A80CF026FF022002F048
:100D4000C3F800230093204B9A6922F440429A6131
:100D50009A6902F440420092009A9A699204FCD582
:100D600001224FF4A0230520372116924FF00C0CDE
:100D7000CDE9092302230B22CDE91233CDE9172354
:100D80000023CDE9140109A81B93CDE919C302F092
:100D9000C7F808B172B6FEE73F230321082203908B
:100DA00001A8CDE901314023CDE904234FF480624D
:100DB0000693CDE9072302F0CBFB08B172B6FEE73C
:100DC0001DB05DF804FB00BF004802587FB500214C
:100DD0001022684601240CF0D7FE002500F0B8FD73
:100DE0004FF010524D4B6846ADF800400426039575
:100DF000CDE9012300F0CAFD4FF0C06368468DF8CD
:100E0000014001930F238DF80A50ADF808308DF89A
:100E10000F4000F0BBFD022368468DF80A408DF8B4
:100E200001304FF040538DF80F5001930D238DF892
:100E3000083000F0ABFD032368468DF80130384BD5
:100E4000019300F0A3FD4FF0104368468DF8016058
:100E5000019319238DF80A508DF808308DF80E4053
:100E600000F094FD304600F081FD2E4B5A6912F4DB
:100E7000003211D1BFF34F8FBFF36F8FC3F85022F1
:100E8000BFF34F8FBFF36F8F5A6942F400325A613C
:100E9000BFF34F8FBFF36F8F224A536913F4803330
:100EA00023D1C2F88430BFF34F8FD2F8803043F69D
:100EB000E074C3F3C900C3F34E335B0103EA0406D5
:100EC000014646EA81750139C2F86052F9D2203BE9
:100ED00013F1200FF2D1BFF34F8F536943F48033E6
:100EE0005361BFF34F8FBFF36F8F00F08DFCFFF79F
:100EF00019FFFFF7BDFE00F0BDFA00F0F1FA00F0B7
:100F000025F800F03FF90849084804F05FF908B1F6
:100F100072B6FEE7FFF7AAFEFEE700BF120001036C
:100F20000040003000ED00E06C800024EC800024E4
:100F300072B6FEE70268034B9A4201D100F092BC00
:100F4000704700BF0008004072B6FEE710B586B0DB
:100F500018220021012468460CF016FE19481A4A8E
:100F600004231A214FF0805CC0E9002300234FF0D6
:100F70000072C0E9023202220362C0E90412C0E931
:100F800006330B22C0E90943C0E90D33CA23C0E987
:100F90000BC2C36300F044FE08B1FFF7D5FF4FF06A
:100FA000011341F2883269460648039301330294E3
:100FB0000493CDE9004400F079FF08B1FFF7C4FFC6
:100FC00006B010BD90800024005000522DE9F0437F
:100FD000BBB004461422002107A80CF0D5FDB822AE
:100FE00000210CA80CF0D0FD2268604B9A4240F022
:100FF000BA804FF00072002304210CA8CDE90C2325
:1010000022230522CDE90E230223CDE91033C0238C
:10101000CDE9121320231F9302F00AFD08B1FFF758
:1010200093FF534B002402250326D3F8D42009272D
:101030004FF0040907A942F400124E484FF00A0885
:10104000C3F8D420D3F8D42002F400120192019AFC
:10105000D3F8D42042F48042C3F8D420D3F8D4206B
:1010600002F480420292029AD3F8E02042F0100289
:10107000C3F8E020D3F8E02002F010020392039AB4
:10108000D3F8E02042F02002C3F8E020D3F8E020BB
:1010900002F020020492049AD3F8E02042F0010208
:1010A000C3F8E020D3F8E02002F001020592059A8F
:1010B000D3F8E02042F00202C3F8E020D3F8E03099
:1010C00003F002030693069BCDE90795CDE9094697
:1010D0000B9700F087FC0F2307A927480B97CDE952
:1010E0000735CDE9094600F07DFC4FF4107307A9E0
:1010F0002148CDF82C80CDE90735CDE9094600F02F
:1011000071FC4FF4806307A91B480B97CDE90735A5
:10111000CDE9094600F066FC0C2307A917480B939C
:10112000CDE90755CDE9094600F05CFC062307A987
:1011300012480B93CDE90795CDE9094600F052FC22
:10114000402307A90E48CDF82C80CDE90735CDE91D
:10115000094600F047FC5C202246214600F0B8FB1F
:101160005C2000F0E7FB3BB0BDE8F083005000528C
:10117000004402580010025800140258000002589F
:10118000000402580D4800230D4A4FF4804100B579
:101190008BB083604361C0E900234FF40032C0E9A3
:1011A000031204F0F1F808B1FFF7CEFE01A90348DD
:1011B00004F00CF80BB05DF804FB00BFEC800024D9
:1011C0000024024870B5B6B004461422002103A8DA
:1011D0000CF0DAFCB822002108A80CF0D5FC22683B
:1011E0002B4B9A4251D14FF48032002308A8CDE90D
:1011F000082302F01DFC08B1FFF7A6FE254B0226CE
:1012000000240325D3F8DC2003A9234842F400720C
:10121000C3F8DC20D3F8DC2002F400720092009ABC
:10122000D3F8E02042F00202C3F8E020D3F8E02037
:1012300002F002020192019AD3F8E02042F0080283
:10124000C3F8E020D3F8E03003F008030293029BD8
:101250004CF21803CDE903360923CDE90545079380
:1012600000F0C0FBC02303A90C48CDE903360B23D3
:10127000CDE90545079300F0B5FB7C20224605210A
:1012800000F026FB7C2000F055FB36B070BD00BF9F
:10129000002402480044025800040258000C02587E
:1012A000074B82B0D3F8F42042F00202C3F8F420D6
:1012B000D3F8F43003F002030193019B02B07047AE
:1012C000004402580F2810B504468AB002D9012004
:1012D0000AB010BD014600221E2000F0F9FA1E20BF
:1012E00000F028FB184B694602A81C60174BD3F886
:1012F000E82042F00402C3F8E820D3F8E83003F015
:1013000004030193019B02F07DFA079BC3B902F02D
:1013100067FA0F4C0F4B236040F2E733E3600E4B4C
:10132000B0FBF3F001380023606020462361A36026
:1013300004F0E8FA0028CAD1204604F09DF9C7E776
:1013400002F04EFA4000E4E70C000024004402588A
:10135000688100240008004040420F00FEE7FEE7DD
:10136000FEE7FEE7FEE77047014804F0CFB900BF93
:1013700068810024014801F0EFB900BF4C820024CD
:10138000014800F0EBBC00BF90800024014804F04D
:1013900051B800BFEC800024284AD2F8883043F4CA
:1013A0007003C2F88830264A136803F00F03062B37
:1013B00005D8136823F00F0343F007031360214B94
:1013C0001A6842F001021A6000221A611E4A196866
:1013D0000A401B491A600A68100705D50A6822F0FE
:1013E0000F0242F007020A60002218499A61DA618E
:1013F0001A6299621649D962164919635A63996348
:10140000DA6319645A64196821F4802119601A6634
:10141000D3F8D420D2040FD4D3F8D42043F2D2018D
:1014200042F48052C3F8D4200B4A1160D3F8D42080
:1014300022F48052C3F8D420704700BF00ED00E0D2
:1014400000200052004402587FEDF6EA000202023A
:101450000000FF018002010100400052044BDA68E5
:1014600042F00202DA605A689204FCD5704700BF6D
:10147000004802581022002100B589B00DEB02008F
:101480000CF082FB00231448144A039383608361A9
:10149000C0E900234FF6FF72CDE90133C0E9032311
:1014A00004F030FA08B1FFF74FFD4FF4805304A960
:1014B0000948049304F060FA08B1FFF745FD0023E2
:1014C00001A905480193039304F012FB08B1FFF74B
:1014D0003BFD09B05DF804FB0082002400040040DD
:1014E0001FB50F4886230F4A0024C0E900234CF2A1
:1014F0004F3303948460C3608023CDE9014483614A
:1015000004F000FA08B1FFF71FFD01A90448019497
:10151000039404F0EDFA08B1FFF716FD04B010BD16
:10152000B481002400140040036882B0114A934241
:101530000ED1114BD3F8E82042F00202C3F8E820A4
:10154000D3F8E83003F002030093009B02B0704729
:101550000A4A9342FAD1084BD3F8E82042F020021D
:10156000C3F8E820D3F8E83003F020030193019B8F
:10157000ECE700BF000400400044025800140040A3
:1015800008B50A480A4B0360092303710123C3808D
:101590004372002343810373C381037400F0F4FE9C
:1015A00018B1BDE80840FFF7CFBC08BD4C8200244D
:1015B0000000044084B000234FF47A7200040193C9
:1015C000029240F000700393039B0C4B58635A6BDC
:1015D0000192019A120103D4029A511E02912AB972
:1015E0005B6B01930198C0B204B070475A6B0192D3
:1015F000019A02F080620392EBE700BF0000044012
:1016000084B06423C9B20293002341EA00410393EA
:1016100041F010710B4B59635A6B0192019A120100
:1016200003D4029A511E02912AB9039A00205B6BDF
:10163000019304B070475A6B0192019A02F08062E4
:101640000392EBE70000044008B50420FFF7B2FF67
:1016500040F020010420FFF7D3FF4FF4FA60BDE80B
:10166000084000F011B90000F0B51422B9B00446EA
:1016700000210DEB02000CF087FAB82200210AA825
:101680000CF082FA2268454B9A4240F085804FF474
:10169000802200230AA8CDE90A2319226023CDE97C
:1016A0001423022304221893CDE916324FF48063E9
:1016B00019934FF400132B9302F0BAF908B1FFF716
:1016C00043FC374C01F024FC02250026D4F8E0301E
:1016D0000A2705A9334843F00403C4F8E030D4F8DE
:1016E000E03003F004030093009BD4F8E03043F0B3
:1016F0000103C4F8E030D4F8E03003F001030193B3
:10170000019BD4F8E03043F00203C4F8E030D4F891
:10171000E030099703F002030293029B0D23CDE909
:101720000765CDE9053500F05DF9282305A91E48B8
:101730000997CDE90535CDE9076500F053F943F682
:10174000234305A919480997CDE90535CDE9076572
:1017500000F048F9D4F8D8303246294643F00073F7
:101760004D20C4F8D830D4F8D83003F00073039378
:10177000039BD4F8D83043F08063C4F8D830D4F851
:10178000D83003F080630493049B00F0A1F84D204F
:1017900000F0D0F8FFF758FF39B0F0BD000004406A
:1017A0000044025800080258000002580004025881
:1017B000DFF838D0FFF752FEFFF7EEFD0C480D4979
:1017C0000D4A002302E0D458C4500433C4188C429C
:1017D000F9D30A4A0A4C002301E013600432A24202
:1017E000FBD30CF0D9F9FFF7F1FA7047000005249C
:1017F00000000024F0000024C4DD000800010024E3
:10180000D03C0124FEE7000010B5032000F04EF8A4
:1018100001F0FCFD0F49104A8B69C3F30323D35C2D
:1018200003F01F03D8408B6903F00F03D35C0B4A0E
:1018300003F01F0320FA03F31360094B18600F2015
:10184000FFF740FD044618B9FFF72AFD204610BDFA
:101850000124FBE700440258A1DD00080000002439
:1018600004000024034A044B11681B780B441360E6
:10187000704700BF3087002408000024014B18681F
:10188000704700BF3087002438B50446FFF7F6FFE5
:101890000546631C1EBF044B1B78E418FFF7EEFFE0
:1018A000431BA342FAD338BD0800002407490302B2
:1018B000CA6803F4E06322F4E0621204120C1343DA
:1018C00043F0BF6343F40033CB60704700ED00E0AA
:1018D000164B30B5DC68C4F30224C4F10703251DA0
:1018E000042B28BF0423062D4FF0FF358CBF033C8B
:1018F000002405FA03F3002805FA04F521EA03039E
:1019000022EA050203FA04F343EA02034FEA03134F
:10191000DBB206DB00F1604000F5614080F8003387
:1019200030BD00F00F00024A1354F9E700ED00E06B
:1019300014ED00E0002807DB0123410900F01F003F
:10194000024A834042F82130704700BF00E100E0C6
:10195000BFF35F8F044B5A6A22F480325A6200222E
:10196000C3F89420704700BF00ED00E0064B40F044
:101970000100C3F894005A6A42F480325A62BFF3FD
:101980004F8FBFF36F8F704700ED00E04378144A2C
:10199000C2F89830D2F8A03023F00103C2F8A0308A
:1019A0004368C2F89C30C37A017B1B0643EA01738B
:1019B00001780B43817A43EAC143417B43EA814387
:1019C000817B43EA4143C17B43EA0143417A43EAD5
:1019D0000123017A43EA4103C2F8A030704700BFF7
:1019E00000ED00E02DE9F74F0023DFF8B8914FF04C
:1019F000B0440A6832FA03F502D103B0BDE8F08FB3
:101A0000012505FA03F818EA020200F0B7804E68D3
:101A100003274FEA430E06F0030507FA0EFC6F1E7C
:101A20006FEA0C0C012F34D8876807EA0C0ACF68DC
:101A300007FA0EF747EA0A078760476827EA0808A7
:101A4000C6F300179F4047EA08074760C768022DA2
:101A500007EA0C088F6807FA0EF747EA0807C7601D
:101A600019D14FEAD30803F0070A4FF00F0B00EB30
:101A700088084FEA8A0AD8F820700BFA0AFB27EA8E
:101A80000B0B0F6907FA0AF747EA0B07C8F8207033
:101A900001E0032DDAD1076805FA0EF516F4403F90
:101AA00007EA0C0745EA0705056067D0D9F8F45046
:101AB00023F0030703F0030C4FF00F0E45F002056F
:101AC00007F1B0474FEA8C0CC9F8F45007F580676E
:101AD000D9F8F4500EFA0CFE05F002050195019DAF
:101AE000BD6825EA0E0E2E4DA84249D005F5806549
:101AF000A84247D005F58065A84245D005F5806528
:101B0000A84243D005F58065A84241D005F580651F
:101B1000A8423FD005F58065A8423DD005F5806517
:101B2000A8423BD005F50065A84214BF0A25092547
:101B300005FA0CF516F4801F45EA0E05BD606FEA44
:101B4000020725680CBF3D40154316F4001F2560B1
:101B500065680CBF3D40154316F4003F6560D4F83E
:101B600084500CBF3D401543F603C4F88450D4F8AC
:101B7000805054BF3D401543C4F88050013338E7CE
:101B80000025D5E70125D3E70225D1E70325CFE7D7
:101B90000425CDE70525CBE70625C9E70725C7E7D7
:101BA000000002580044025828B190F83D30022B42
:101BB00003D080238366012070470268042380F8E5
:101BC0003D300020D36823F00103D36070472DE936
:101BD000F041DDF8188004460E4615461F4622687F
:101BE000136A334214BF01230023AB4201D100200A
:101BF0000FE0B8F1FF3FF3D0FFF740FEC01B4045B8
:101C000009D94FF4007301202365636D43F001038C
:101C10006365BDE8F081B8F1000FE0D1F1E70000A5
:101C2000F7B50446FFF72AFE0646002C68D00023CD
:101C30006365276D002F5ED12046FFF7C7F9636B00
:101C4000E16841F2883225681943E369A8681943BD
:101C50002C4BA2650340204619432369013B41EA0E
:101C600003416369013B41EA0321A960EB68216AF2
:101C700023F4E0230B43216BEB60A36B43EA0143A6
:101C800061682B610139E36B6B612B6823F4F853B6
:101C900043EA012320212B60334600923A46FFF7A6
:101CA00096FF48BB2368626AD968013A21F0FF01B8
:101CB0000A43A168DA601A6822F040020A431A60F7
:101CC000D3F80811D4E90A2021F0A04102430A43C5
:101CD000C3F808211A6842F001021A60A269022AB8
:101CE00003D19A6842F002029A60E368B3F1806F10
:101CF00004D101232365002003B0F0BD0223F9E7DE
:101D00000120F9E7F4F8E0F870477047006C08B577
:101D100000238364036DB3F5807F14D103681A6ACE
:101D200012F0200F4FF0020209D05A621A6842F4F2
:101D300000321A601A6842F002021A6008BD026599
:101D4000FFF7E3FFFAE702230365FFF7DDFFF5E79F
:101D500070477047704770477047704738B50368E1
:101D600004461A6A18685507216D1FD545031DD50D
:101D7000182914D1226C127883F85020236C013377
:101D80002364A36C013BA364A36C23B9226813688A
:101D900023F4802313602046FFF7DAFF38BD28299B
:101DA000F2D1226C93F850301370E7E795073ED5D7
:101DB00085033CD528291DD1A16C69B112F47C5F43
:101DC0000AD093F85030226C1370236C01332364D3
:101DD000A36C013BA364E1E7A26C002ADED10221DF
:101DE000204659621A6822F4E0221A602165FFF742
:101DF000B1FFD3E70220182958621A6822F4E022C2
:101E00001A60206503D12046FFF7A5FFC6E7082921
:101E100003D12046FFF79DFFC0E7B1F5807FBDD11C
:101E2000636D2046002B31D1FFF76FFFB6E7110736
:101E300010D505030ED508225A621A68500205D53E
:101E40001A6822F410221A60022323652046FFF745
:101E500083FFA3E7D1071CD5C5031AD501220225AC
:101E60005A621A6822F4F8121A6065651A685007F7
:101E70000AD51A68E06C22F004021A600A4B8365E6
:101E8000FFF792FE002889D020462565FFF73CFF2A
:101E900084E7D10682D5C20280D5102220465A623C
:101EA000FFF75BFF7AE700BF0D1D0008954B8C46DE
:101EB00002682DE9F04F9A428FB04FF001074FF0C2
:101EC000000415BF4FF000094FF00109012600265C
:101ED00002ABDFF834E2022F1C61C3E90044C3E91E
:101EE000024440F00B81884A8848126812F0010FC2
:101EF00018BF4FF4007000250EEB8502691C526874
:101F0000D50704D582EA0005AD0758BF1960D5068C
:101F100004D582EA0005AD0658BF5960D50504D541
:101F200082EA0005AD0558BF9960D5030AD582EA5B
:101F300000056D0306D4950354BF41F4803541F08C
:101F40008075DD60D5010AD582EA00056D0106D4F1
:101F5000950154BF41F4803241F080721A61022928
:101F60004FF00105C8D1AF4203F1180300F0C4805F
:101F7000644B1F682F4004D01A682F4622F00102DC
:101F80001A60634B1A68D10740F1BA801A6847F0AB
:101F9000020B22F001021A600EAB182101FB063180
:101FA000594B51F8282C013A03EB8202506820F477
:101FB000807050601A68D20740F1AE801A6822F033
:101FC00001021A60B9F1000F2CD0089A013A03EB14
:101FD0008202516841F002015160099A32B1013A1E
:101FE00003EB82035A6842F020025A600B9B5BB1FC
:101FF000013B03F001039B0003F1A44303F53443C9
:102000005A6842F480225A600C9B5BB1013B03F09A
:1020100001039B0003F1A44303F534435A6842F0E3
:1020200080625A60DCF800304FF0180ADCF80C20AF
:1020300001930EAB0AFB093ADCF810305AF8200C79
:102040005AF8308C009001985AF82C1C40455AF8E8
:10205000244CDCE9015E00F09C805AF828ACF24583
:1020600008D08D4200D12DB9A24203D000988342FE
:1020700040F09E8008F1FF38234800EB8808D8F82C
:1020800004A02AF0010AC8F804A041B1013900EB0C
:102090008101D1F8048028F01008C1F804801821CB
:1020A0000EA801FB090959F8281C4FEA81081949B3
:1020B0004144D1F8048028F48078C1F804805CB1F0
:1020C000013C04F00104A40004F1A44404F53444E8
:1020D000616821F4803161600099002968D0481E50
:1020E00000F00100800000F1A44000F53440416898
:1020F00021F0807141605BE00F46ECE60020FAE6DB
:10210000BB4649E70050005200B4005222020404CA
:1021100000A00052FCB3005251F8302C002A81D0AC
:10212000013A03EB8202506820F00100506051F840
:102130002C2C32B1013A03EB82035A6822F01002D0
:102140005A6018230EAA03FB062353F8243C5BB104
:10215000013B03F001039B0003F1A44303F5344367
:102160005A6822F480325A6018230EAA03FB062311
:1021700053F8203C002B3FF455AF013B03F0010323
:102180009B0003F1A44303F534435A6822F08072A4
:1021900047E78D427FF46EAFA2427FF46BAF0098A9
:1021A00083427FF467AF7548016841F00101016027
:1021B000724C0EF1FF3E04EB8E0EDEF8041021F49B
:1021C000407141EA462141F48071CEF80410DCF8F8
:1021D000140021680138C1F30741884205D92168FC
:1021E00021F47F0141EA00412160019902F4803C21
:1021F0002068013910F0010F03F480304FEA8101AB
:10220000214461D04E6826F0030646F001064E6078
:1022100045B1013D04EB8505696821F0300141F0CD
:1022200010016960BCF1000F2ED0013A02F00102EA
:10223000920002F1A44202F53442516821F4E021F7
:1022400041F48031516078B3013B03F001039B00FE
:1022500003F1A44303F534435A6822F4E02242F424
:1022600040325A6027B1464A136843F001031360B5
:102270001BF0020F04D0434A136843F001031360BC
:1022800000200FB0BDE8F08F002ADCD0013A02F048
:102290000102920002F1A44202F53442516821F099
:1022A000E06141F08071CDE7002BDBD0013B03F012
:1022B00001039B0003F1A44303F534435A6822F061
:1022C000E06242F04072CCE7D1F804E02EF0030E59
:1022D0004EEA460E4EF0010EC1F804E055B1013D44
:1022E00004EB8504616821F0300141EA461141F0B8
:1022F00010016160BCF1000F1ED0013A02F0010232
:10230000920002F1A44202F53442516821F4E02126
:1023100041EA864141F480315160F8B1013B03F05C
:1023200001039B0003F1A44303F534435A6822F4EC
:10233000E02242EA864292E7002AEED0013A02F019
:102340000102920002F1A44202F53442516821F0E8
:10235000E06141EA866141F08071DDE7002B81D0C8
:10236000013B03F001039B0003F1A44303F5344355
:102370005A6822F0E06242EA8662A2E700B40052A4
:102380000050005200A00052F7B50446E0B190F8AA
:10239000953403F0FF021BB980F89424FFF764F929
:1023A00003232068251D84F8953404F067F8237C06
:1023B0008DF80030206895E80E0003F09BFF014681
:1023C00030B1022384F895340125284603B0F0BDCE
:1023D000206804F059F80028F3D1267904F1140399
:1023E00001270246C1B224338E4220D8002104F5D1
:1023F00015730A46C8B22433864226D8237C8DF84A
:102400000030206895E80E0004F0B8F80546002872
:10241000D7D10123607484F89534237B012B02D13A
:10242000204600F03DFD206804F0EAFBCDE723F8EC
:102430000A0C013003F8237C03F8241C03F8202C39
:1024400043F8142C43E90722CCE7013103F8232C8D
:1024500003F8240C03F8202C43F8142C43E907223A
:10246000C8E710B50446006894F89434012B15D0E1
:10247000012384F89434C3685B0606D5637B012B83
:1024800003D1836B43F48033836303F0F1FF20684F
:1024900004F0A8FB002084F8940410BD0220FCE79F
:1024A00038B590F894340446012B1BD001230568FD
:1024B00080F89434284603F0E1FF206804F0A0FB84
:1024C0001021206804F00EF8EB685B0606D5637BEC
:1024D000012B03D1AB6B23F48033AB63002084F872
:1024E000940438BD0220FCE77047704710B590F89F
:1024F00094240446012A0AD00122417480F89424CD
:10250000006804F05FFB002084F8940410BD0220F2
:10251000FCE770B501F00F0611F0800F05464FF093
:10252000240006EBC6044FEA840420D004F1140111
:1025300000FB0650012429444475C2F30A020E70C0
:102540000B718A604A7802B14E83022B04BF0023CC
:102550004B7195F89434012B12D00123286885F82B
:10256000943404F0CEF8002085F8940470BD04F58E
:10257000157100FB06500024294480F85542DCE721
:102580000220F3E710B5044601F00F0011F0800FB0
:102590004FF0240200EBC0034FEA830315D003F190
:1025A000140102FB0042012321445375087094F882
:1025B0009434012B12D00123206884F8943404F061
:1025C000DFF8002084F8940410BD03F5157102FBB8
:1025D00000420023214482F85532E7E70220F3E766
:1025E00070B501F00F052424164604FB050104FB19
:1025F000050401F5157184F85452C4E998230023A9
:10260000C4F8683284F8553282790068012A08BF1C
:10261000C4F8706204F060F9002070BD01F00F0191
:10262000242303FB0100D0F86802704770B501F065
:102630000F052424164604FB050104FB0504143190
:102640002575C4E908230023A362012363758279F9
:1026500000689A4208BF266304F03EF9002070BD6E
:1026600038B501F00F0503790446AB422BD311F0C6
:10267000800F4FF024001DD000FB0541012300FB1B
:1026800005401431437501230D708B7094F8942428
:102690009A421AD0206884F8943404F03FFA2DB995
:1026A00004F29C42A179206804F0F8FA002084F832
:1026B000940438BD00FB01431A4603F5157100234D
:1026C00082F85532DFE70120F3E70220F1E738B561
:1026D00001F00F0203790446934229D302EBC203AF
:1026E00011F0800F4FF024004FEA830317D003F15D
:1026F000140100FB024001232144437500250A70A8
:102700008D7094F89434012B14D00123206884F840
:10271000943404F02EFA284684F8945438BD03F516
:10272000157100FB02400023214480F85532E5E793
:102730000120F3E70220F1E701F00F030A0603EBA3
:10274000C3034FEA83034CBF03F1140103F5157172
:102750000144006804F06AB82DE9F04F066889B0BA
:102760000446304604F088FA0390002840F06F8158
:10277000206804F053FA002800F06981D6F8083880
:1027800006F500652068C3F30D23C4F8D43404F0C3
:1027900045FA870704D52268536903F002035361A1
:1027A000206804F03BFAC0062DD52268936923F017
:1027B00010039361D6F8208008F4F01308F00F0797
:1027C000B3F5802F40F0468147F6F07318EA030F07
:1027D00014D02423C8F30A19304603FB07474A469E
:1027E000D7F8601204F07AF9D7F860324B44C7F892
:1027F0006032D7F868324B44C7F868322268936970
:1028000043F010039361206804F008FA010300F11B
:102810003481206804F002FA42030DD5274606F5FC
:10282000106B4FF0000A206804F004FA0490049B37
:102830002068002B40F0EB81206804F0EFF90028BD
:1028400013DA6B6823F001036B6094F8CC34012B2E
:1028500040F083820021204684F8CC1400F033FB42
:102860002268536903F000435361206804F0D6F9ED
:1028700003050AD5AB68DF0702D520460AF094FCB1
:102880002268536903F400635361206804F0C6F9B9
:10289000000114D523685A6902F000625A6194F865
:1028A000CC24002A40F05D820121204684F8CC141B
:1028B0005B6DC3F38303C4F8D03400F004FB2068DD
:1028C00004F0ACF9C10433D56B681021206823F003
:1028D00001036B6003F006FE207906F510634FF6E6
:1028E0007F31039A904200F24082EB6943F001137A
:1028F000EB61E37B002B00F05782D5F8843043F086
:102900000B03C5F884306B6C43F00B036B64D6F893
:10291000003804F29C42206823F4FE63C6F80038B5
:10292000A17904F0BBF92268536903F48053536121
:10293000206804F073F9820416D5206804F0A0F929
:10294000206803F0D3FE2768E07100F027FFE279EA
:102950000146384603F01CFD20460AF0F1FB2268D0
:10296000536903F400535361206804F057F90307D7
:1029700007D520460AF02CFC2268536903F00803AF
:102980005361206804F04AF9070600F118822068B4
:1029900004F044F9C0020CD5A04606F512690127DF
:1029A0002379BB4200F224822268536903F4801326
:1029B0005361206804F032F981022BD594F804E0C9
:1029C000234606F532614FF0010CE6451DD993F818
:1029D0007C720868012F40F02182002880F21E825C
:1029E000D4F8D42482EA1040C20700F1178283F899
:1029F0007B72B06940F08000B0617069000600F140
:102A00000D826B6843F400736B602268536903F4B2
:102A100000135361206804F001F9410007D52046F6
:102A20000AF0A6FB2268536903F0804353612068D3
:102A300004F0F4F842070AD523685D686B0702D5F5
:102A400020460AF09FFB226853682B43536009B06D
:102A5000BDE8F08FB3F5402F7FF4D0AE082204F22A
:102A60009C413046C8F30A1804F038F8242303FBCD
:102A70000747D7F868324344BEE606F53068A246F9
:102A80000027206804F0CEF80490049B2068002BF7
:102A90003FF4BFAE049BDB0778D55FFA87FB59464E
:102AA00004F0D0F810F0010F81461FD001232068F8
:102AB000C8F8083000F5306394F806C003EB4713FC
:102AC000016CBCF1010F9A6840F08B8012F0080F86
:102AD00007D0B348814209D9120407D54FF4004208
:102AE00003E012F0200F5AD020229A6019F0080F4C
:102AF00021D00823AA49C8F8083023681A6C03F5C6
:102B000030638A4203EB4713986804D9000402D566
:102B10004FF400409860204605920AF0FDF9059AAE
:102B20009F498A4207D9A179012904D104F29C4224
:102B3000206804F0B3F819F0100F02D01023C8F881
:102B4000083019F0020F14D07369190603D56B68A9
:102B500043F480636B609AF85732012B06D100234F
:102B6000594620468AF85732FFF7BEFC0223C8F8C0
:102B7000083019F0200F02D02023C8F8083019F4CB
:102B8000005F03D04FF40053C8F80830049B0137AE
:102B900008F120080AF1240A5B08049375E7DFF8BE
:102BA00000C2614501D9120498D41A69DAF8743266
:102BB000C2F312029B1ACAF868326FB9D4F86422C1
:102BC0002AB904F29C42012104F068F804E0D4F828
:102BD00060221A44C4F86022594620460AF05CFA82
:102BE00084E7DFF8C0C1614507D111043FF576AF36
:102BF0009206F1D520229A60EEE7002FECD1D4F8AE
:102C00006432002BE8D104F29C423946DCE7049B95
:102C1000DA0740F199805FFA8AF31946059304F0C8
:102C20001AF810F0010F80461FD001210AF00F02A0
:102C30006B6B01FA02F223EA02036B63CBF8081014
:102C4000A17901290DD1D7E9072313443B62BAF1D9
:102C5000000F06D1636A23B904F29C42206804F095
:102C60001DF8059920460AF0B5F918F0080F02D0B2
:102C70000823CBF8083018F0100F02D01023CBF83F
:102C8000083018F0400F02D04023CBF8083018F07D
:102C9000020F0FD05146304603F024FCFB7D012B80
:102CA00005D1002305992046FB75FFF71EFC022382
:102CB000CBF80830236818F0800F069344D0D7E98A
:102CC00009329A4240D8A3EB0208FB69984528BF15
:102CD0009846069B08F1030803F510634FEA98082D
:102CE00003EB4A130793079B996989B24145D7E9DA
:102CF000093227D393420BD8069B0AF00F0001211B
:102D0000D3F83428814022EA0102C3F834281BE0BA
:102D1000A3EB0209FB69059A9945069828BF9946D5
:102D2000A37900931FFA89F3396A09F1030803F0C4
:102D3000BFFD3B6A4FEA98084B443B62BB6A4B4479
:102D4000BB62D0E79342D7D9049B0AF1010A24372A
:102D50000BF1200B5B08049369E520460AF02EFA7C
:102D60007EE520460AF020FAA9E59960203353F861
:102D7000202C22F4001243F8202CC3F8E811D3F8D9
:102D8000E02122F40012C3F8E021D3F8E02142F060
:102D90000062C3F8E021039A01320392A1E500BF6B
:102DA0000A30544F0A31544F6B6943F4005343F0D7
:102DB0002B036B612B6943F00B032B61A7E5B36910
:102DC000012704F257284FF0240923F08003B36150
:102DD0002379BB427FF6DBAD09FB07F318F803301C
:102DE000012B03D1F9B22046FFF7A6FC0137EFE72C
:102DF00098F83C30D9F80020012B09D1002A07DAD5
:102E000067F07F01204688F83B30C9B2FFF794FC99
:102E1000013708F1240809F12009C1E50CF1010C82
:102E200024332031D1E500BF10B590F89434044626
:102E3000012B10D0012380F894340B06006807D5CD
:102E400001F00F0103F04EFB002084F8940410BD44
:102E500003F06BFBF8E70220F9E700681204436A0D
:102E600070B519B913438362002070BD846A4E1E89
:102E700003EB14430024B44205D33F31134300EB6A
:102E800081004360F0E704F14005013400EB850563
:102E90006D6803EB1543EEE7036800205962704745
:102EA000012102680346C0F8D814002083F8CC043E
:102EB000936943F000639361536D43F0805343F093
:102EC000030353657047704738B5104CE36813F03F
:102ED000040FE36805D103F00703181A18BF012097
:102EE00038BD23F007031843E060FEF7C7FC054632
:102EF00063689B0401D50020F2E7FEF7BFFC401B8E
:102F0000B0F57A7FF4D90120EAE700BF0048025803
:102F1000024AD36843F08073D36070470048025878
:102F2000F8B50446002869D00368D80753D423684D
:102F3000990700F1A1802368DA061CD5954A136928
:102F4000916A03F03803082B07D0182B40F0E1807A
:102F500001F00303012B40F0DC801368DB0502D590
:102F6000E369802B4AD18B4A216AD36823F07C53D2
:102F700043EA0163D3602368190700F1F6802368F0
:102F80009A0600F11C8123685D071ED5824D2B68CF
:102F900043F480732B60FEF771FC06462B68DA055C
:102FA00040F13281A3687B4D012B40F034812B6FBF
:102FB00043F001032B6741F28837FEF75FFC754E43
:102FC0000546336F9B0740F14C81616A002940F050
:102FD0004F8100202AE06F4A1369916A03F0380399
:102FE000102B05D0182B0BD101F00303022B07D1B6
:102FF00013689A039BD56368002B98D1012015E0D4
:103000006368644DB3F5803F11D12B6843F480337E
:103010002B60FEF733FC5F4E054633689B0386D476
:10302000FEF72CFC401B6428F7D90320F8BDA3B998
:103030002B6823F480332B602B6823F480232B60D0
:10304000FEF71CFC06462B689F037FF570AFFEF76A
:1030500015FC801B6428F6D9E7E7B3F5A02F2B6891
:1030600003D143F480232B60CFE723F480332B601C
:103070002B6823F48023CBE74649E2680B69886A12
:1030800013F0380303D0182B20D180071ED10B6812
:103090005B0701D5002AB1D03E4D2B6823F0190300
:1030A00013432B60FEF7EAFB06462B685F0707D544
:1030B0006B68226923F0FE4343EA02636B603AE7E0
:1030C000FEF7DCFB801B0228EFD9AEE7314D2B6801
:1030D0007AB123F0190313432B60FEF7CFFB0646AA
:1030E0002B685807E4D4FEF7C9FB801B0228F7D9E8
:1030F0009BE723F001032B60FEF7C0FB06462B681D
:1031000059077FF518AFFEF7B9FB801B0228F6D9E7
:103110008BE7E3691F4DBBB12B6843F080032B6045
:10312000FEF7ACFB06462B68DF0507D5EB68226A85
:1031300023F07C5343EA0263EB601CE7FEF79EFB3F
:10314000801B0228EFD970E72B6823F080032B60E7
:10315000FEF794FB06462B68D8057FF50CAFFEF70B
:103160008DFB801B0228F6D95FE76369094DABB17F
:103170006B6F43F001036B67FEF780FB06466B6FD6
:103180009B073FF5FCAEFEF779FB801B0228F6D9C2
:103190004BE700BF00440258004802586B6F23F011
:1031A00001036B67FEF76AFB06466B6F9F077FF5AF
:1031B000E6AEFEF763FB801B0228F6D935E7A3696C
:1031C000914D83B12B6843F480532B60FEF756FB7F
:1031D00006462B6898043FF5D6AEFEF74FFB801BE2
:1031E0000228F6D921E72B6823F480532B60FEF7E1
:1031F00045FB06462B6899047FF5C5AEFEF73EFBFE
:10320000801B0228F6D910E7FEF738FB801B6428E4
:103210007FF6C4AE09E7B3B92B6F41F2883723F0CC
:1032200001032B672B6F23F004032B67FEF726FBAC
:1032300006462B6F98077FF5C8AEFEF71FFB801B75
:10324000B842F6D9F1E6052B2B6F03D143F0040306
:103250002B67ACE623F001032B672B6F23F00403ED
:10326000A8E6FEF70BFB401BB8427FF6AAAEDCE6F1
:10327000654D2B6903F03803182B78D02B68022991
:1032800023F080732B6065D1FEF7F8FA06462B68B1
:10329000990159D4AB6AA26A23F47C7323F0030327
:1032A0001343E26A43EA0213AB62636BA26B013B16
:1032B000013A5B0212049BB202F4FE021343226B3A
:1032C000013AC2F308021343E26B013A120602F01C
:1032D000FE4213432B63EB6A23F00103EB626B6B3B
:1032E000A26C6FF3CF0343EAC2036B63EB6A226CF9
:1032F00023F00C031343EB62EB6A626C23F00203CE
:103300001343EB62EB6A43F48033EB62EB6A43F402
:103310000033EB62EB6A43F48023EB62EB6A43F029
:103320000103EB622B6843F080732B60FEF7A6FA73
:10333000354D04462B689A013FF54BAEFEF79EFAD9
:10334000001B0228F6D970E6FEF798FA801B0228C7
:103350009DD96AE6FEF792FA04462B689B017FF539
:1033600038AEFEF78BFA001B0228F6D95DE601297C
:10337000AA6A2B6B3FF442AE02F00301A06A8142BD
:103380007FF43CAEC2F30512E16A8A427FF436AEA6
:10339000226BC3F30801013A91427FF42FAE626BB6
:1033A000C3F34621013A91427FF428AEA26BC3F3E6
:1033B0000641013A91427FF421AEE26BC3F306630A
:1033C000013A93427FF41AAE6B6BA26CC3F3CC0349
:1033D0009A423FF4FEAD0C4DEB6A23F00103EB6221
:1033E000FEF74CFA0646FEF749FAB042FBD06B6B8B
:1033F000A26C6FF3CF0343EAC2036B63EB6A43F043
:103400000103EB62E5E500BF00440258494B1A692D
:1034100002F03802102A30B500F08880182A0CD04B
:10342000002A40F085801A68434812F0200F03D02C
:103430001B68C3F3C103D84030BD996A9D6ADC6A3A
:1034400015F47C7FC5F305105A6BF5D0C2F3CC029E
:1034500004F0010401F0030107EE900A6243B7EEA5
:10346000006A0129B8EEE77A06EE902AFAEEE96AD8
:103470004ED002293ED000294AD11A68920627D59B
:1034800019682D4AC1F3C1011B6BCA40C3F308037D
:1034900007EE902AF8EEE75AC5EE877A07EE103A63
:1034A000B8EEC77A37EE267A37EE067A67EE877A75
:1034B000204B1B6BC3F34623013307EE103AF8EEA3
:1034C000C76A87EEA67AFCEEC77A17EE900AB3E7D2
:1034D0001B6BC3F3080307EE903AF8EEE77A77EE3A
:1034E000A67A77EE867A9FED156AC6EE076A67EED2
:1034F000A67ADDE71B6BC3F3080307EE903AF8EEFC
:10350000E77A77EEA67A77EE867A9FED0D6AECE79A
:103510001B6BC3F3080307EE903AF8EEE77A77EEF9
:10352000A67A77EE867A9FED076ADEE7064883E79C
:10353000064881E7004402580090D0030024744CF0
:1035400020BC3E4C0024744A80F0FA0200093D0081
:103550002DE9F0410D46044610B90120BDE8F08187
:10356000884A136803F00F038B42C0F093802368EE
:103570005F0700F19B801E070BD583496069CA690C
:1035800002F07002904204D9CA6922F0700202432C
:10359000CA61D8060BD57C49A069CA6902F4E06209
:1035A000904204D9CA6922F4E0620243CA619906D2
:1035B0000BD57549E0690A6A02F07002904204D99D
:1035C0000A6A22F0700202430A629A070BD56E491A
:1035D000E0688A6902F00F02904204D98A6922F0F9
:1035E0000F0202438A61DF076ED423689E0700F151
:1035F000A18064490A6802F00F02AA4200F2A88082
:10360000580700F1B18019070BD55F496069CA6995
:1036100002F07002904204D2CA6922F070020243A2
:10362000CA61DA060BD55849A069CA6902F4E0629A
:10363000904204D2CA6922F4E0620243CA619B0646
:103640000BD5514AE169136A03F07003994204D221
:10365000136A23F070030B431362FFF7D7FE4A4946
:103660004A4A8B69C3F30323D35C03F01F03D8409A
:103670008B6903F00F03D35C454A03F01F0320FA64
:1036800003F31360434B1860434BBDE8F0411868E7
:10369000FDF718BE136823F00F030B431360136884
:1036A00003F00F038B427FF458AF60E7364920697F
:1036B0008A6902F0700290427FF65DAF8A6922F05B
:1036C000700202438A6156E72F4BA1689A6922F47F
:1036D00070620A439A6161681A6802291DD112F466
:1036E000003F3FF43AAF1A6941F28838264F22F082
:1036F00007020A431A61FEF7C1F806463B69626891
:1037000003F03803B3EBC20F3FF46FAFFEF7B6F828
:10371000801B4045F2D9032020E7032902D112F093
:10372000007FDEE7012902D112F4807FD9E712F091
:10373000040FD6E71449E0688A6902F00F0290424C
:10374000BFF457AF8A6922F00F0202438A6150E743
:103750000A6822F00F022A430A600A6802F00F0288
:10376000AA427FF4FAAE4BE7074920698A6902F062
:1037700070029042BFF447AF8A6922F070020243A0
:103780008A6140E70020005200440258A1DD000891
:1037900000000024040000240C00002408B5FFF7FA
:1037A00035FE0B4A0B4993699269C3F3032302F078
:1037B0000F02CB5C03F01F0320FA03F3885C064A78
:1037C00000F01F0023FA00F01060044A136008BDE7
:1037D00000440258A1DD0008000000240400002479
:1037E00008B5FFF7DBFF054B054ADB69C3F302139E
:1037F000D35C03F01F03D84008BD00BF004402584B
:10380000A1DD00083F230360114B1A6902F0070293
:1038100042609A6902F4706282609A6902F00F0253
:10382000C2609A6902F070020261DA6902F0700205
:103830004261DA6902F4E06282611B6A03F070039C
:10384000C361044B1B6803F00F030B60704700BF9C
:103850000044025800200052F8B5394C06460D4687
:10386000A36A03F00303032B67D0236823F080636C
:103870002360FEF703F8074623681A0149D4A36AB8
:10388000326823F47C3343EA0233A362B368F268FC
:10389000013B013A5B0212049BB202F4FE021343A5
:1038A0007268013AC2F3080213433269013A120600
:1038B00002F0FE421343A363E36A726923F0C0037C
:1038C0001343E362E36AB26923F020031343E36224
:1038D000E36A23F01003E362E36BF2696FF3CF0353
:1038E00043EAC203E363E36A43F01003E362E36A7B
:1038F000B5B943F40023E362114C236843F08063BD
:103900002360FDF7BBFF054623681B010FD5002090
:1039100005E0FDF7B3FFC01B0228ADD90320F8BDB9
:10392000012D0CBF43F4801343F40013E3E7FDF7CC
:10393000A5FF401B0228E7D9F0E70120EFE700BF11
:1039400000440258F8B5394C06460D46A36A03F008
:103950000303032B67D0236823F080532360FDF714
:103960008DFF074623689A0049D4A36A326823F082
:103970007C7343EA0253A362B368F268013B013AE5
:103980005B0212049BB202F4FE0213437268013A16
:10399000C2F3080213433269013A120602F0FE42F2
:1039A00013432364E36A726923F440631343E362BD
:1039B000E36AB26923F400731343E362E36A23F416
:1039C0008073E362636CF2696FF3CF0343EAC2036F
:1039D0006364E36A43F48073E362E36AB5B943F472
:1039E0008003E362114C236843F080532360FDF7AA
:1039F00045FF054623689B000FD5002005E0FDF735
:103A00003DFFC01B0228ADD90320F8BD012D0CBF1E
:103A100043F4000343F08073E3E7FDF72FFF401BFF
:103A20000228E7D9F0E70120EFE700BF0044025881
:103A30002DE9F843036805461C011ED5436EB3F516
:103A4000001F2AD00FD8D3B1B3F5801F1DD0012697
:103A50002B68D80553D5AB6D042B4FD8DFE803F0A6
:103A6000224148272700B3F5401FF0D1964A696EDE
:103A7000136D23F440130B4313650026E8E7924AC5
:103A8000D36A43F40033D362F0E702210830FFF732
:103A9000E3FE06460028DBD1E8E702212830FFF7E5
:103AA00051FFF6E7884AD36A43F40033D3623446C1
:103AB0003CBB854AA96D136D23F007030B431365C7
:103AC0002B68590530D5D5F8A430B3F5800F49D00F
:103AD00019D8002B39D0B3F5001F3CD0012634464D
:103AE00022E0002105F10800FFF7B6FE0446DFE7FB
:103AF000002105F12800FFF725FFF7E701263446EE
:103B0000DEE72646DCE723F40012B2F5000F02D010
:103B1000B3F5C00FE2D15CBB6B4AD5F8A410936D2E
:103B200023F460030B4393652B681A0533D5D5F84E
:103B3000A830B3F1007F48D01CD8002B38D0B3F1A7
:103B4000807F3BD00126344625E05F4AD36A43F4A8
:103B50000033D362DFE7002105F10800FFF77CFEA8
:103B60000446D8E7002105F12800FFF7EBFEF7E750
:103B70002646D9E723F08072B2F1806F02D0B3F10C
:103B8000407FDFD13CBB504AD5F8A810936D23F09D
:103B9000E0630B4393652B689B0128D5EB6C202BCE
:103BA0003BD01AD8DBB1102B31D0012634461EE0B1
:103BB000454AD36A43F40033D362E3E7002105F1B9
:103BC0000800FFF749FE0446DCE7002105F1280064
:103BD000FFF7B8FEF7E72646DDE7302BE5D11CBB43
:103BE000394AE96CD36C23F030030B43D3642B6860
:103BF000DF042AD5EB6DB3F5005F74D016D8002B27
:103C000064D0B3F5805F67D0012634461DE02E4AAC
:103C1000D36A43F40033D362E1E7022105F10800DF
:103C2000FFF71AFE0446DAE72646E0E7B3F5405F01
:103C300002D0B3F5804FE7D1002C5AD1224AE96D6A
:103C4000136D23F4E0430B4313652B6898040BD5E5
:103C50002B6EB3F5003F66D04DD8002B53D0B3F593
:103C6000803F59D0012634462B6859040CD5D5F82D
:103C7000AC30B3F1005F77D05DD8002B63D0B3F1E7
:103C8000805F6AD0012634462B681A0411D5EB6E8A
:103C9000B3F1805F70D0B3F1005F73D0002B78D1A7
:103CA000002C79D1084AE96E136D23F040530B4381
:103CB00013652B68DB017FD5AB6C032B00F2C18051
:103CC000DFE803F0716CB871004402589E4AD36A71
:103CD00043F40033D362AFE7002105F10800FFF79A
:103CE000BBFD0446A8E7002105F12800FFF72AFEE6
:103CF000F7E72646A9E723F48032B2F5802F02D0F9
:103D0000B3F5403FAED1A4B98F4A296E136D23F4A9
:103D1000E0230B431365A7E7012105F10800FFF736
:103D20009BFD0446EFE7012105F12800FFF70AFE9D
:103D3000F7E7264698E723F08052B2F1804F02D091
:103D4000B3F1405F9ED1ACB97F4AD5F8AC10936D0A
:103D500023F0E0430B43936596E7012105F108004A
:103D6000FFF77AFD0446EEE7012105F12800FFF791
:103D7000E9FDF7E7264687E7734AD36A43F4003341
:103D8000D3628DE7012105F10800FFF765FD0446C8
:103D900086E7012634468CE726468AE76A4AD36AD4
:103DA00043F40033D362002C4ED1674AA96CD36C24
:103DB00023F003030B43D3642B685F024ED5634F9C
:103DC0003B6843F480733B60FDF758FD80463B68D9
:103DD000D8053BD5002C6DD15B4BD5F8B0001A6FE0
:103DE000424012F4407F0BD01A6F196F22F44072D8
:103DF00041F480311967196F21F4803119671A670E
:103E0000B0F5807F41D0D5F8B0304F4903F440720F
:103E1000B2F5407F4AD108694D4A20F47C5002EA4D
:103E2000131202430A61C3F30B03474A116F0B439A
:103E3000136713E0022105F10800FFF70DFD0446AA
:103E4000B1E701263446B7E72646B5E7FDF716FD8C
:103E5000A0EB08006428BAD9032634462B68DA0799
:103E600008D5AB6F102B3DD026D85BB3082B32D0D2
:103E7000012634462B689B074AD56B6F052B5DD80E
:103E8000DFE803F03E38563E3E3EFDF7F7FCDFF834
:103E9000B880074641F28839D8F870309907B2D413
:103EA000FDF7ECFCC01B4845F6D9D5E70A6922F4BA
:103EB0007C52B7E72646D1E723F00802202A01D03A
:103EC000182BD5D1A4B9204AA96F536D23F038031C
:103ED0000B435365CEE7012105F10800FFF7BCFC59
:103EE0000446EFE7012105F12800FFF72BFDF7E776
:103EF0002646BFE7012105F10800FFF7ADFC0446A7
:103F0000FCB9114A696F536D23F007030B435365E6
:103F10002B685F072FD5D5F89030052B00F267810D
:103F2000DFE813F01E0018005F011E001E001E00D7
:103F3000012105F12800FFF705FDE0E701263446E1
:103F4000E6E72646E4E700BF00440258004802586E
:103F5000CFFFFF00012105F10800FFF77DFC0446BB
:103F6000002C40F04781A44AD5F89010936D23F0BF
:103F700007030B4393652B68980610D5D5F88C3052
:103F8000B3F1005F00F0548100F23881002B00F0A3
:103F90003E81B3F1805F00F04481012634462B68F6
:103FA000590610D5D5F89830B3F5006F00F062814E
:103FB00000F24681002B00F04C81B3F5806F00F0D9
:103FC0005281012634462B681A0610D5D5F89C304C
:103FD000B3F5804F00F0708100F25481002B00F0A7
:103FE0005A81B3F5005F00F06081012634462B68EA
:103FF0001B0714D5D5F88030B3F5805F07D10221B7
:1040000005F12800FFF79EFC002818BF01267A4A18
:10401000D5F88010536D23F440530B4353652B6840
:10402000DF0614D5D5F89430B3F5807F07D102218F
:1040300005F12800FFF786FC002818BF01266E4A0C
:10404000D5F89410936D23F440730B4393652B685C
:1040500018031BD5D5F8A010B1F5803F00F03481CE
:10406000B1F5003F07D0002940F0348105F1080088
:10407000FFF7F2FB0446002C40F02F815E4AD5F892
:10408000A010936D23F440330B4393652B685903C1
:104090000FD5D5F88430B3F5001F00F02F81B3F5AC
:1040A000401F00F02181B3F5801F00F01881012628
:1040B00034462B68DA0309D52B6D002B00F02781DD
:1040C000B3F5803F00F03181012634462B689B0018
:1040D00007D5022105F12800FFF734FC002818BF9E
:1040E0000126D5E900319F0340F13781E86FB0F533
:1040F000807F00F0348100F22181002800F02481CB
:104100000124DE0206D53C482E6F026D22F00042EB
:1041100032430265980206D53748AE6E026D22F032
:104120008072324302655A0009D5334A106920F47F
:10413000004010611069D5F8B46030431061002B65
:1041400006DA2D486E6DC26C22F040523243C264D2
:104150001F0207D5284AD5F88800536D23F4400381
:1041600003435365CE0706D5002105F10800FFF78C
:1041700073FB074600B927466B689C0706D50121EB
:1041800005F10800FFF768FB064600B93E466B687C
:10419000580706D5022105F10800FFF75DFB04462C
:1041A00000B934466B68190706D5002105F12800CF
:1041B000FFF7C8FB064600B926466B68DA0606D547
:1041C000012105F12800FFF7BDFB044600B9344684
:1041D0006B689B0600F1C980201E18BF0120BDE856
:1041E000F883012105F12800FFF7ACFBB7E60126B3
:1041F0003446C0E62646BEE60044025823F080520C
:10420000B2F1804F03D0B3F1405F7FF4C6AEACB9DA
:104210005B4AD5F88C10536D23F0E0430B43536594
:10422000BDE6002105F10800FFF716FB0446EEE7A6
:10423000022105F12800FFF785FBF7E72646AEE6E9
:1042400023F48062B2F5805F03D0B3F5406F7FF452
:10425000B8AEACB94A4AD5F89810936D23F4E05340
:104260000B439365AFE6002105F10800FFF7F4FA70
:104270000446EEE7022105F12800FFF763FBF7E7AC
:104280002646A0E623F40052B2F5004F03D0B3F562
:10429000C04F7FF4AAAEACB9394AD5F89C10936DE3
:1042A00023F460430B439365A1E6002105F1080068
:1042B000FFF7D2FA0446EEE7022105F12800FFF7E6
:1042C00041FBF7E7264692E6022105F12800FFF7B9
:1042D00039FBCFE601263446D8E62646D6E6284AFC
:1042E000D36A43F40033D3627CB9254AD5F88410ED
:1042F000536D23F440130B435365DAE6012105F1B6
:104300002800FFF71FFB0446EEE72646D1E61C4ACD
:10431000D36A43F40033D36274B9194A296DD36C5C
:1043200023F480330B43D364D0E6022105F1080067
:10433000FFF792FA0446EFE72646C7E620F48072BC
:10434000B2F5007F7FF4DCAE002C7FF4DAAE0C4CCB
:10435000626D22F44072024362653446D1E6084F32
:10436000FA6A42F40032FA62EEE7022105F128000F
:10437000FFF7E8FA00283FF42FAF01202FE700BF36
:104380000044025808B5FFF709FA054B054A1B6AB5
:10439000C3F30213D35C03F01F03D84008BD00BF72
:1043A00000440258A1DD00084F4970B58C6A8E6A3E
:1043B000CD6A16F47C3FC6F30533CA6B00F09080DB
:1043C00007EE903AC2F3CC03C5F3001204F00304E5
:1043D000B8EEE77A5343012CB7EE006A06EE903A46
:1043E000FAEEE96A6ED0022C5ED0002C6AD10B681E
:1043F0009B0647D50A688B6BC2F3C1013B4AC3F3E6
:104400000803CA4007EE902AF8EEE75AC5EE877A0D
:1044100007EE103AB8EEC77A37EE267A37EE067A0C
:1044200067EE877A304A936BC3F3462307EE103A60
:10443000B8EEC77A37EE067AC7EE876AFCEEE66A10
:10444000C0ED006A936BC3F3064307EE103AB8EE73
:10445000C77A37EE067AC7EE876AFCEEE66AC0EDE9
:10446000016A936BC3F3066306EE903AF8EEE66AD0
:1044700076EE866A87EEA67AFCEEC77A17EE903A59
:10448000836070BD8B6BDFED1A5AC3F3080307EE30
:10449000903AF8EEE77A77EEA67A77EE867AC5EE6E
:1044A000876A67EEA67ABDE78B6BDFED125AC3F31E
:1044B000080307EE903AF8EEE77A77EEA67A77EE01
:1044C000867AECE78B6BDFED0C5AC3F3080307EE3B
:1044D000903AF8EEE77A77EEA67A77EE867ADEE71C
:1044E000C0E90033CCE700BF004402580090D0037D
:1044F0000024744C20BC3E4C0024744A4F4970B5D3
:104500008C6A8E6ACD6A16F07C7FC6F305534A6CBE
:1045100000F0908007EE903AC2F3CC03C5F300227E
:1045200004F00304B8EEE77A5343012CB7EE006AB7
:1045300006EE903AFAEEE96A6ED0022C5ED0002CBC
:104540006AD10B689B0647D50A680B6CC2F3C101A0
:104550003B4AC3F30803CA4007EE902AF8EEE75A35
:10456000C5EE877A07EE103AB8EEC77A37EE267AAC
:1045700037EE067A67EE877A304A136CC3F3462328
:1045800007EE103AB8EEC77A37EE067AC7EE876ABA
:10459000FCEEE66AC0ED006A136CC3F3064307EE57
:1045A000103AB8EEC77A37EE067AC7EE876AFCEEA5
:1045B000E66AC0ED016A136CC3F3066306EE903A37
:1045C000F8EEE66A76EE866A87EEA67AFCEEC77AA1
:1045D00017EE903A836070BD0B6CDFED1A5AC3F38F
:1045E000080307EE903AF8EEE77A77EEA67A77EED0
:1045F000867AC5EE876A67EEA67ABDE70B6CDFEDBB
:10460000125AC3F3080307EE903AF8EEE77A77EE12
:10461000A67A77EE867AECE70B6CDFED0C5AC3F3E3
:10462000080307EE903AF8EEE77A77EEA67A77EE8F
:10463000867ADEE7C0E90033CCE700BF00440258C9
:104640000090D0030024744C20BC3E4C0024744ADB
:104650004F4970B58C6A8E6ACD6A16F47C7FC6F3BA
:1046600005134A6B00F0908007EE903AC2F3CC033A
:1046700005F0010204F00304B8EEE77A5343012C7D
:10468000B7EE006A06EE903AFAEEE96A4ED0022CD6
:104690005ED0002C6AD10B689B0667D50A680B6B4D
:1046A000C2F3C1013B4AC3F30803CA4007EE902A94
:1046B000F8EEE75AC5EE877A07EE103AB8EEC77AF9
:1046C00037EE267A37EE067A67EE877A304A136B32
:1046D000C3F3462307EE103AB8EEC77A37EE067AF0
:1046E000C7EE876AFCEEE66AC0ED006A136BC3F39F
:1046F000064307EE103AB8EEC77A37EE067AC7EEF1
:10470000876AFCEEE66AC0ED016A136BC3F30663C9
:1047100006EE903AF8EEE66A76EE866A87EEA67ABC
:10472000FCEEC77A17EE903A836070BD0B6BDFED3D
:104730001A5AC3F3080307EE903AF8EEE77A77EED9
:10474000A67A77EE867AC5EE876A67EEA67ABDE727
:104750000B6BDFED125AC3F3080307EE903AF8EE45
:10476000E77A77EEA67A77EE867AECE70B6BDFEDE9
:104770000C5AC3F3080307EE903AF8EEE77A77EEA7
:10478000A67A77EE867ADEE7C0E90033CCE700BF91
:10479000004402580090D0030024744A20BC3E4CD0
:1047A0000024744C1FB5A0F580730B4315D19D4BAD
:1047B0001A6D02F00702042A2FD8DFE812F01D005C
:1047C000CB0005003B014300186810F0005000F0DA
:1047D000C98001A8FFF792FEC3E0A0F580630B43F8
:1047E0001DD1904B9A6D02F46002B2F5800FEBD0B0
:1047F0000CD8002A40F0AE80186810F0007000F06D
:10480000B18001A8FFF724FF0298ABE0B2F5C00F1A
:1048100000F01081B2F5000F14D00020A2E0A0F546
:1048200000630B432DD17F4B9A6D02F0E062B2F131
:10483000007FC9D0DDD9B2F1407F00F0FB80B2F13A
:10484000806FE9E7DA6C196802F04052480706D534
:104850002AB91B68C3F3C1037348D84082E0714B87
:104860001968C90503D5B2F1805F00F0E5801868CA
:1048700010F4003076D0B2F1005F6C4818BF002011
:1048800070E0A0F580530B431FD1664B1A6D02F404
:10489000E042B2F5005F97D0ABD9B2F5405F00F0CF
:1048A000C980B2F5804FB8D1DA6C196802F0405275
:1048B0001B68480701D5002ACCD0D90503D5B2F131
:1048C000805F00F0B980574BD1E7A0F500530B4350
:1048D0002FD1544A136D03F4E023B3F5403F7ED04B
:1048E0000CD8B3F5803F14D0B3F5003F19D0002B9E
:1048F00093D105B05DF804EBFEF772BFB3F5802FDE
:1049000073D0B3F5A02F88D11068484B10F4003055
:104910006FE0106810F0006024D001A8FFF744FD9C
:1049200072E7106810F000501CD001A8FFF7E6FDF8
:104930006AE7A0F500230B4320D13A4B9A6D02F4AD
:104940004032B2F5803F10D0B2F5003FACD0002A23
:104950007FF463AF186810F0006003D001A8FFF780
:1049600023FD019805B05DF804FB186810F00050B5
:10497000F8D001A8FFF7C2FD0398F3E7A0F5803354
:104980000B430CD1274BDA6CD2037FF535AF186897
:1049900010F00060E6D001A8FFF706FDECE7A0F5F7
:1049A00080430B4328D11F4A936D03F0E043B3F1DA
:1049B000405F14D00DD8B3F1805FAAD0B3F1005F8F
:1049C000AFD0002B7FF429AF05B05DF804EBFFF703
:1049D000D9BCB3F1804F08D0B3F1A04F93E7106872
:1049E00010F00400BED0136834E71068104B10F4C8
:1049F000807018BF1846B5E7A0F5004008437FF463
:104A00000CAF084A136D03F04053B3F1805F07D039
:104A1000B3F1005F3FF47DAF002B7FF4FEAE73E790
:104A20001068EAE6004402580090D00380F0FA02D1
:104A300000093D00014895E7014893E70080BB006D
:104A400000093D002DE9F047054686B08846FCF791
:104A500015FF08218146286801F0B0F9044648BBDB
:104A6000696C2868090401F06FFA044610BB4FF026
:104A7000FF300823302669460494CDE90003022361
:104A80002868CDE902630123059301F0CAF828687C
:104A900001F08EFA044668B90746064640F22A5AE3
:104AA0002868436B13EA0A0F436B07D01A0719D51E
:104AB00008248463204606B0BDE8F087190308D4B3
:104AC0003CB901F085F806462868012401F080F819
:104AD0000746FCF7D3FEA0EB09000130E0D14FF010
:104AE0000044E7E7436B9B0701D50224E1E7446BF1
:104AF00014F0200401D02024DBE7044B3FBA36BA7F
:104B00008363C8F80070C8F80460D3E73A0F001850
:104B1000F0B5044687B015461E460F4631B9436BC3
:104B200043F000636363012007B0F0BD90F83030BC
:104B3000012B4AD1AB19016D00228B42426303D98C
:104B4000436B43F00073EDE70323694680F8303090
:104B500073020068C262A26BA362012A4FF0FF32A7
:104B6000676218BF6D02CDE9002390220223CDE9D0
:104B700002230023CDE9043301F053F82068C36811
:104B800043F04003C360012387659E42036511D94A
:104B900082232946E36201F045F9236880B10C4A7B
:104BA0009A63636B03436363012384F8303000230B
:104BB000E362B8E781232946E36201F019F9ECE7E3
:104BC000DA6B42F49572DA63AEE70220ACE700BF1D
:104BD000FF0FE01F2DE9F041044686B015461E4642
:104BE0000F4639B9436B43F000636363012006B09D
:104BF000BDE8F08190F83030012B4AD1AB19016D3E
:104C000000228B42426303D9436B43F00073ECE70D
:104C100003234FF09008694680F830307302006833
:104C2000C262A26B2362012A4FF0FF32E76118BF14
:104C30006D02CDE900230023CDE90283CDE90433E1
:104C400000F0EFFF2068C36843F04003C360012316
:104C500087659E42036511D9A0232946E36201F0CE
:104C600015F9236880B10C4A9A63636B034363634D
:104C7000012384F830300023E362B7E72946C4F803
:104C80002C8001F0E9F8ECE7DA6B42F48D72DA631C
:104C9000ADE70220ABE700BFFF0FE01F7047000049
:104CA000C26D0346900F10B50870C2F38360487060
:104CB000C2F301608870C2F30740C870C2F30720D6
:104CC000D2B208714A711A6E100DC880C2F3034047
:104CD0000872C2F3C0304872C2F380308872C2F3E7
:104CE0004030C872C2F30030087300204873986BDC
:104CF00000286BD140F6FC74586E04EA820242EA46
:104D000090720A61C0F3C2620A75C0F302624A750A
:104D1000C0F342528A75C0F38242C0F3C230CA75F2
:104D2000087608690A7E013002F0070202329040DC
:104D3000012298640C7A04F00F04A240DA64520A4B
:104D400042431A654FF400725A655A6EC2F38030BE
:104D50004876C2F3C61002F07F0288760020CA7639
:104D60009B6EDA0F0A77C3F341724A77C3F382620C
:104D70008A77C3F38352CA77C3F3405281F8202065
:104D8000C3F3004281F8210081F82220C3F3C0322E
:104D900081F82320C3F3803281F82420C3F340320A
:104DA00081F82520C3F3003281F82620C3F3812245
:104DB00081F82720C3F30122C3F3460381F828209A
:104DC00081F82930012381F82A301BE001280FD116
:104DD0001204B3F8660002F47C1202430A610A6905
:104DE000013292029A641A654FF40072DA64A9E7FC
:104DF0001A680120044991635A6B42F080525A6349
:104E000083F8300010BD00BFFF0FE01FF0B5002396
:104E100095B0044600214FF48030CDE90433CDE94C
:104E20000633FFF7BFFC054648B9012384F830304C
:104E30004FF0006363630125284615B0F0BD7B4E3B
:104E400004ABB0FBF6F60798314608968DE80300F0
:104E50000ECB206800F0A2FE206800F0C1FE744B6B
:104E600074489D4284BF7600B5FBF6F5B0FBF5F0C3
:104E70000130FCF709FD00232068039300F0E4FEF5
:104E80000546A8B9206801F0F9F9B0F1004F06D144
:104E90002068E56300F0D8FE80B1054608E00123F4
:104EA000E3630021206801F04FF850B14FF08055C6
:104EB000012384F83030636B2B43BBE7E36B012B9A
:104EC000EFD000214FF6FE765B4F14E0206801F032
:104ED0003BF805460028EBD13946206801F030F94F
:104EE0000028E3D12946206800F098FE039B054680
:104EF000C10F01330393039BB34201D80029E5D0CE
:104F0000039BB34214D8C5F380750023A563ADF8A5
:104F10000A30FCF7B3FC0546206800F067FE50B984
:104F20004FF08061012384F83030636B0B4381E7DD
:104F30004FF08075BCE7A36B2068032B3DD001F0D8
:104F4000ADF801460028EDD1206800F067FE04218D
:104F5000E066206800F062FE08212067206800F00B
:104F60005DFE0C216067206800F058FEA36BA0670F
:104F7000032B22D041F28736BDF80A10206859B3BE
:104F8000A36B032B19D06164090401F09EF801465C
:104F90000028C7D1206800F041FE0421E0652068A8
:104FA00000F03CFE08212066206800F037FE0C214E
:104FB0006066206800F032FEA0660421206800F0E0
:104FC0002DFE09A9000D20642046FFF769FE054665
:104FD00088B14FF08051A5E70DF10A0101F00AF9FF
:104FE000014600289ED1FCF749FC401BB042C3D9C2
:104FF0004FF0004196E7616C2068090400F08AFFD9
:10500000014600288ED14FF40071206800F0D6FED2
:1050100000283FF411AF2368084A9A63636B034387
:105020006363012384F8303005E700BF00350C00CE
:10503000FF340C0010210100000010C1FF0FE01F21
:105040002DE9F04190F8303096B004460D46032B20
:1050500000F0AB80FCF712FC00210646206800F04F
:10506000DDFD830100F1A6804021206800F0A6FE4E
:1050700058B1636B636323680125524A9A63636B7B
:105080000343636384F8305082E0616C2068090454
:1050900000F05AFF0028ECD140234FF0FF374FF0CB
:1050A000600C049069462068CDE900730223CDE9C5
:1050B00002C30123059300F0B4FD206800F0ACFFAB
:1050C0000028D6D106AF23685A6B12F4957F0AD018
:1050D0005A6B110771D45A6B920770D45B6B9B06A5
:1050E0001ED52020C7E75B6B180408D507F1200800
:1050F000206800F06DFD47F8040B4745F8D1FCF738
:10510000BDFB801B0130DED14FF00040B3E700F063
:105110005FFD47F8040BFCF7B1FB801B0130F3D0B7
:105120002068426B12F48052F1D10699264B8363BA
:10513000C1F381132B70C1F340136B700B0A23F082
:10514000FF0343EA11639BB26B80079B1BBA6B6042
:10515000089BD9B22972C3F307216972C3F30351C3
:105160001B0CA972099923F0FF03C8B20343AB815A
:10517000C1F38523AB73C1F30123EB73C1F30313B5
:1051800001F00F012B749DF82B306974AB74154638
:105190004FF40071206800F011FE38B12368094A0D
:1051A0009A630123606384F830300125284616B0E5
:1051B000BDE8F0814FF400605DE708205BE7022066
:1051C00059E700BFFF0FE01F3A0F0018836B0B6019
:1051D000C36B4B60036C8B60436CCB60836C0B6167
:1051E000C36C4B61036D8B61436D0020CB617047D5
:1051F000032330B589B080F83030836B04460D4608
:10520000032B02D0B1F5004F03D1636B43F0805301
:105210001EE0B1F5804F23D100210068CDE90311D4
:1052200000F0FCFC800135D403A92046FFF70AFCFE
:1052300060B9049B590330D5616C2068090400F003
:1052400083FE18B90221206800F098FE636B0343C7
:105250006363636B43B323683D4A9A63012550E05F
:10526000F1B90068CDE9031100F0D8FC820111D436
:1052700003A92046FFF7E6FB0028E7D1049BDB03E8
:105280000BD5616C2068090400F05EFE0028DDD1BA
:105290000146D8E74FF40060D8E74FF08060D5E7CB
:1052A000436B43F00063D3E74FF480300021FFF7F6
:1052B00079FA002847D0636826490393A368B0FBB6
:1052C000F1F2CDE9043523690693636993420CD268
:1052D000A56DB5F5007F08D0B5F5807F29D11BBB42
:1052E000884202D91C4BB0FBF3F3079308AB0025AF
:1052F00013E9030003AB8DE803000ECB206800F038
:105300004DFC4FF40071206800F058FD30B1236867
:1053100001250F4A9A63636B0343636301232846A5
:1053200084F8303009B030BD5A00B0FBF2F28A4246
:10533000D7E70A491BB9884288BF1346D5E75D0005
:10534000B0FBF5F0F7E7636B43F00063636385E759
:10535000FF0FE01F80F0FA0200E1F50540787D01C3
:10536000416C10B509040446006800F03BFE01469C
:1053700028B9206800F052FCC0F3432010BD636BD5
:10538000034300206363F7E770B5044686B018B99D
:105390000125284606B070BD90F8303003F0FF02BA
:1053A00013B90276FBF70EFF0423204684F8303051
:1053B000FFF72CFD0028EBD101A92046FFF740FEA6
:1053C0000028E5D1A16B9DF8143001299DF8152026
:1053D000DBB2D2B205D1134314BF4FF400704FF4C7
:1053E0008070A0652046E168FFF702FF05460028AF
:1053F000CED1FCF743FA06462046FFF7B1FF04285A
:1054000006D100236363E362012384F83030C0E7F0
:10541000FCF734FA801B0130EED14FF00043032536
:105420006363012384F83030B3E7704770477047F7
:1054300070470000F7B5C56A04460068436B1B045B
:1054400020D52F071ED5D4E909631F2B18D9351D88
:1054500006F124072068043500F0BAFB05F8080CB3
:10546000030A05F8073C030C000E05F8063C05F896
:10547000050CBD42EED1A36A2036203B6662A362D2
:1054800003B0F0BD436BDE0553D54FF480738363E7
:10549000C36B23F4414323F03A03C363C36B23F08C
:1054A0008053C363C36823F04003C36015F008034F
:1054B0001FD015F0220F08D000F002FD28B1636B59
:1054C000034320466363FFF7E9FB2368A907694AA2
:1054D0009A634FF0010384F830304FF00003E36229
:1054E00003D0204601F084FCCAE7204601F06CFCA2
:1054F000C6E72A06C4D515F0220F8362C36203658E
:1055000008D000F0DDFC28B1636B034320466363E1
:10551000FFF7C4FB012315F0300F84F830304FF053
:105520000003E36202D0204601F04EFCAF07A7D093
:10553000D7E7436B5E0427D5290725D5236A1F2BA0
:105540009ED9E669351D06F1240715F8043C04359B
:1055500001A92068019315F8072C43EA022301935F
:1055600015F8062C43EA0243019315F8052C43EA8B
:105570000263019300F02FFBBD42E6D1236A20367F
:10558000203BE66123627BE7436B13F03A0F436BEA
:1055900056D09A0703D5636B43F002036363436BF2
:1055A0001B0703D5636B43F008036363436B9F06DC
:1055B00003D5636B43F020036363436BDE0603D5BF
:1055C000636B43F0100363632A4B8363C36B23F461
:1055D0009D73C363C36823F04003C360C36A43F48D
:1055E0000053C362C36843F08003C36000F068FCEB
:1055F000636B15F0080143EA000363632368DA680C
:1056000022F08002DA604FF400629A6308D001232E
:1056100084F830300023E3622046FFF73FFB2FE79A
:1056200028067FF52DAF626B002A3FF429AFDA6BB5
:1056300022F08052DA631965012384F83030EBE7F9
:10564000DA007FF51DAF4FF0805305F0200583632E
:10565000036D20465B0706D415B1FFF7E9FE0FE79F
:10566000FFF7E4FE0CE715B1FFF7E1FE08E7FFF7EF
:10567000DCFE05E73A0F001890F83D30012B3BD1D6
:10568000022380F83D300368DA6842F00102DA60F4
:105690001A4A934222D0B3F1804F1FD0A2F57C4228
:1056A00093421BD002F58062934217D002F58062CC
:1056B000934213D002F5784293420FD0A2F56C4288
:1056C00093420BD002F59432934207D0A2F5C04228
:1056D000934203D002F58062934207D19968084A49
:1056E0000A40062A06D0B2F5803F03D01A6842F07D
:1056F00001021A600020704701207047000001403D
:10570000070001007047704770477047036870B525
:10571000DD6804461E69B2070DD5A9070BD56FF0E9
:1057200002021A61012202779B699A0775D0FFF77E
:10573000EAFF00232377730710D568070ED5236887
:105740006FF0040220461A61022222779B6913F44B
:10575000407F68D0FFF7D7FF0023237731070FD5AD
:105760002A070DD523686FF0080220461A6104222B
:105770002277DB699B075CD0FFF7C5FF0023237707
:10578000F10610D5EA060ED523686FF01002204608
:105790001A6108222277DB6913F4407F4FD0FFF7AC
:1057A000B2FF00232377F30708D5E80706D523685F
:1057B0006FF0010220461A61FBF7BCFB16F4025F92
:1057C00008D0290606D523686FF4025220461A61D4
:1057D00000F0E1F9F20508D52B0606D523686FF431
:1057E000807220461A6100F0D7F9700608D5690664
:1057F00006D523686FF0400220461A61FFF785FF47
:10580000B20622D5AB0620D523686FF020022046D1
:105810001A61BDE8704000F0BDB9FFF773FF204684
:10582000FFF772FF85E7FFF76DFF2046FFF76CFF7C
:1058300092E7FFF767FF2046FFF766FF9EE7FFF757
:1058400061FF2046FFF760FFABE770BD2B4A03689E
:10585000904212D0B0F1804F0FD0A2F57C4290421E
:105860000BD002F58062904207D002F58062904230
:1058700003D002F57842904208D123F070034A68C1
:10588000134323F44073CA68134312E01C4A904246
:10589000F7D002F580629042F3D002F58062904228
:1058A000EFD0A2F5D0429042EBD002F58062904258
:1058B000E7D04A6923F0800313438A68C2620A680A
:1058C00082620E4A90420FD002F5806290420BD065
:1058D00002F57052904207D002F58062904203D0E8
:1058E00002F58062904201D10A690263026842F0C7
:1058F000040202600122426103607047000001401F
:105900000040014010B5044650B390F83D3003F01C
:10591000FF021BB980F83C20FBF706FE022320683B
:10592000211D84F83D30FFF791FF0123002084F80A
:10593000483084F83E3084F83F3084F8403084F8B2
:10594000413084F8423084F8433084F8443084F89D
:10595000453084F8463084F8473084F83D3010BD37
:105960000120FCE710B50A43846842EA032224F4CC
:105970007F442243826010BD38B590F83C30044625
:10598000012B4FF0020300F0AA80012280F83D3085
:10599000544B80F83C20006885682B4083600B687E
:1059A000702B56D03CD8502B67D01DD8402B7DD0C3
:1059B00006D8202B0ED00BD833F010020AD00122CB
:1059C000012384F83D30002384F83C30104638BD74
:1059D000302BF4D1826822F4401222F070021A4374
:1059E00042F0070282603DE0602BE9D1036A026A5F
:1059F0004D6823F0A00322F01002C96843EA0513A2
:105A00000262826922F4704242EA013282610362D8
:105A1000836823F4401323F0700343F0670320E00E
:105A2000B3F5005F20D004D8B3F5805218BF01222F
:105A3000C6E72D498B42CDD005D823F01001B1F532
:105A4000801FBDD1C6E729498B42C3D010318B429C
:105A5000F7E7CB68D1E90121FFF784FF836843F0C2
:105A6000770383600022ABE7CB68D1E90121FFF720
:105A700079FF836843F48043F3E74A68CD68016A9D
:105A8000036A21F00A0123F001030A4303628369D8
:105A900023F0F00343EA051383610262836823F471
:105AA000401323F0700343F05703DAE74A68CD68E8
:105AB000016A036A21F00A0123F001030A43036229
:105AC000836923F0F00343EA05138361026283686C
:105AD00023F4401323F0700343F04703C1E71A4651
